:020000040800F2
:100000000020002059010008A5010008A5010008F2
:1000100000000000000000000000000000000000E0
:10002000000000000000000000000000A501000822
:100030000000000000000000A5010008A501000864
:10004000A5010008A5010008A5010008A5010008F8
:10005000A5010008A5010008A5010008A5010008E8
:10006000A5010008A5010008A5010008A5010008D8
:10007000A5010008A5010008A5010008A5010008C8
:10008000A9010008A501000800000000A501000862
:10009000A5010008A5010008A5010008A5010008A8
:1000A000A5010008A5010008A5010008A501000898
:1000B000A501000800000000A501000800000000E4
:1000C0000448054B10B5834203D0044B002B00D0ED
:1000D000984710BD0400002004000020000000002C
:1000E00006480749091A8B10C90FC91810B54910DD
:1000F00003D0044B002B00D0984710BD0400002013
:10010000040000200000000010B5074C2378002BED
:1001100009D1FFF7D5FF054B002B02D0044800E0C2
:1001200000BF0123237010BD040000200000000068
:10013000BC030008054B10B5002B03D0044905484B
:1001400000E000BFFFF7CCFF10BDC046000000007C
:1001500008000020BC0300080C4885460C480D49E7
:100160000D4A002302E0D458C4500433C4188C4212
:10017000F9D30A4A0A4C002301E013600432A24278
:10018000FBD300F077F800F071F8FEE700200020C4
:100190000000002004000020E0030008040000200C
:1001A000C0010020FEE70000104A136901218B43C3
:1001B00013610F4B1B68D3630E4A1278002A08D0D4
:1001C000013B0B4A1360002B0AD10A4B00221A7024
:1001D00006E00133064A1360044AD26A934200D013
:1001E0007047044B01221A70FAE7C0460004004031
:1001F000240000202000002030B5184B59698022CF
:1002000012030A435A611649086880229202024387
:100210000A60DA6902210A43DA61124B6422DA6267
:100220009A62DA696E310A43DA61196A80225200F1
:100230000A431A62DA6801200243DA600A4980221E
:1002400052020A60C424A4000A59FF25AA437F3D34
:100250002A430A511A6802431A6030BD0010024056
:10026000000800480004004000E100E010B5FFF77E
:10027000C3FFFEE770B50D4B0D4D5E1BB610AB42D4
:1002800005D0002408CD01349847A642FAD800F0E2
:1002900095F8084B084D5E1BB610AB4205D0002404
:1002A00008CD01349847A642FAD870BDD40300089F
:1002B000D4030008DC030008D40300087047C046DC
:1002C0007047C046034B10B5002B02D0024800F027
:1002D00005F810BD00000000ED02000810B5010097
:1002E00000230022002000F015F810BD70B5074C67
:1002F000074D641BA41005D0013CA300EB589847A0
:10030000002CF9D100F060F870BDC046E003000891
:10031000DC030008F0B5D6464F4646469846244BC7
:10032000C0B5060018689A460F009146FFF7C6FF51
:10033000204B1D68002D32D053466C6818681F2C66
:1003400030DC002E0CD1631C0234A4006B606751BA
:10035000FFF7B6FF0020E0BCBA46B146A846F0BDA4
:1003600049468822A300EB189950C42149008C46C5
:10037000AC446146873AA2400968914611436246FF
:1003800011608421424649005A50022EDBD12900D7
:100390004A468D31FF310B6813430B60D3E7064D9E
:1003A0001D60C9E7FFF78CFF01204042D3E7C0463C
:1003B000000000202C00002030000020F8B5C046CE
:1003C000F8BC08BC9E467047F8B5C046F8BC08BCEF
:0403D0009E4670478E
:0803D400C50200083501000814
:0403DC00090100080B
:0403E00028000020D1
:040000050800015995
:00000001FF
