:020000040800F2
:1000000000200020B1070008FD070008FD070008D8
:1000100000000000000000000000000000000000E0
:10002000000000000000000000000000FD070008C4
:100030000000000000000000FD070008FD070008A8
:10004000FD070008FD070008FD070008FD07000880
:10005000FD070008FD030008FD070008F50600087D
:10006000FD070008FD0700084D060008FD07000811
:10007000FD070008FD070008FD07000889040008C7
:10008000FD040008FD0700080000000061050008ED
:10009000A9050008FD070008FD070008FD07000886
:1000A000FD070008FD070008FD070008FD07000820
:1000B000FD07000800000000FD0700080000000028
:1000C0000448054B10B5834203D0044B002B00D0ED
:1000D000984710BD1004002010040020000000000C
:1000E00006480749091A8B10C90FC91810B54910DD
:1000F00003D0044B002B00D0984710BD1004002003
:10010000100400200000000010B5074C2378002BDD
:1001100009D1FFF7D5FF054B002B02D0044800E0C2
:1001200000BF0123237010BD100400200000000058
:100130002C0C0008054B10B5002B03D004490548D2
:1001400000E000BFFFF7CCFF10BDC046000000007C
:10015000140400202C0C0008124BC35C002B09D0A7
:10016000114BC35A01339BB28022D200934215D067
:100170000D4A83528022D200835A01339BB29342AC
:100180000ED08022D2008352835A074A825A9B1A89
:100190005A425341DBB2034A835470470023E7E7D6
:1001A0000023EEE70404000002040000094BC35CD6
:1001B000002B0AD18023DB00C25A92B2064BC35AED
:1001C0009BB29A4204D0002000E00020C0B27047E9
:1001D0000120FBE704040000020400000023802249
:1001E000D2008352024A83520022024BC25470470B
:1001F000020400000404000010B58023DB00C35A91
:100200009BB2C154FFF7A8FF10BD000070B50400F9
:100210000D00FFF7CBFF002813D10B4AA35A9BB266
:10022000E35C2B70A35A01339BB2023A934206D08F
:10023000054AA352054B0022E254012070BD002361
:10024000F6E701204042F9E7020400000404000040
:100250000E49CB6901221343CB610D4B0D490B6055
:100260000D490B600D490B6813430B600C390B688B
:1002700013430B600A4AC321890053581B021B0A0F
:10028000535080231B0213607047C0460010024089
:1002900083030000280000402C0000400C000040B8
:1002A00000E100E00F4AD36902210B43D3610E4BFA
:1002B0000E4A1A600E4B0F4A1A600F4A1368013932
:1002C0000B4313600D4A13680B4313600C4BC4219E
:1002D00089005A58FF2082435A50802252021A60E5
:1002E0007047C04600100240280400403F0600004E
:1002F0002C040040871300000C0400400004004060
:1003000000E100E00F4AD16980235B000B43D36119
:100310000D4B0E4A1A600E4B0E4A1A600E4A1368B5
:1003200001210B4313600D4A13680B4313600C4A01
:10033000C421890053581B021B0A535080231B03FE
:100340001360704700100240282000401F03000087
:100350002C200040871300000C20004000200040AB
:1003600000E100E00F4A916980235B020B43936137
:100370000D4B0E4A1A600E4B0E4A1A600E4A136855
:1003800001210B4313600D4A13680B4313600C4BA0
:10039000C52189005A58FF2082435A5080225203B7
:1003A0001A60704700100240284001403F1F0000C3
:1003B0002C400140871300000C40014000400140E8
:1003C00000E100E00A4B1A6801210A431A609A68AA
:1003D0000A439A60DA680A43DA60064B20221A6000
:1003E000C12189005A58044802405A507047C046FB
:1003F0000004014000E100E0FF00FFFF1E4B5B69CD
:10040000DB0738D51C4A536901210B4353611B4B51
:100410009B78002B2FD19023DB051B69DB0709D5C7
:10042000164B00225A701B78002B03D0134AD37846
:100430000133D3709023DB051B69DB070DD40F4B11
:1004400001225A701B78002B07D10D4A1368012135
:100450008B431360094B0022DA70084B012199701D
:10046000084A506980235B00034353618022D20510
:1004700013680B43136070470004014030040020F0
:100480000004004000080048164B1B68DB0727D516
:10049000144A136801214B401360134B1B78002B47
:1004A00017D1124B00229A7011494A691148024033
:1004B0004A618021C9050A680330FF3082430A601F
:1004C0005B78002B0CD10C4A136801210B4313609D
:1004D00006E0103A13688B431360034B00221A7036
:1004E0007047C0461000004000000020300400208B
:1004F00000080048FFFEFFFF00040040124B1B688D
:10050000DB0717D5104A136801214B4013600F4BCE
:100510005B78002B0FD10E4A012313700D490A6836
:100520009A430A600C490A681A430A600B490A6830
:1005300013430B607047074A13688B431360034BE8
:1005400000225A70F6E7C046100400400000002068
:100550003004002000040040002000400040014022
:100560000D4B1B68DB070ED50B4A136801214B406E
:1005700013600A4B9B78002B06D1094A51698023EE
:100580009B004B4053617047064A13688B431360CE
:10059000024B00229A70F6E7102000400000002075
:1005A00000080048002000401C4B1B68DB072CD5CE
:1005B0001A4A136801214B401360194BDB78002B5A
:1005C0000BD1184BDB78012B20D0022B22D0002B33
:1005D0000BD0154B00221A700AE0144A13688B43A3
:1005E00013600F4B0022DA700FE00F4B00221A70DD
:1005F0000C4B0022DA701A700C4A136801218B43ED
:1006000013600B4A13688B4313607047064B01223B
:100610001A70EDE7044B02221A70E9E7104001401E
:1006200000000020300400202C0400200040014085
:100630000020004010B5FFF7C5FEFFF709FEFFF7E9
:1006400031FEFFF75FFEFFF78DFE10BD094B1B6803
:100650009B0604D5074A536820210B435360054B82
:100660001B689B0505D5034A516880239B000B43FB
:100670005360704700000240044A936901210B4314
:100680009361034B1A691A617047C046001002401B
:10069000000001400A4B5969802292020A435A61C4
:1006A00059698022D202114359619023DB051868F1
:1006B00004490143196019680A431A607047C0462B
:1006C0000010024054550100084A516980231B0361
:1006D0000B435361064B1968802252020A431A6089
:1006E00019688022D2020A431A6070470010024043
:1006F00000080048184B5B78002B13D0174B5B6940
:100700009B050FD5154A516980239B000B4353610C
:10071000134B01221A709022D20591698023DB04C9
:100720000B4393610C4B1B78002B13D00B4B5B6975
:100730005B050FD5094A51698023DB000B435361E8
:10074000084B01221A709022D205916980239B04E4
:100750000B4393617047C0463804002000040140F9
:10076000370400203604002010B5FFF7ADFFFFF777
:1007700091FFFFF781FF0B4B01221A700A4B19689A
:100780008022D2001143196099680A439A60074A8F
:1007900080231360C121890053581B021B0A535048
:1007A00010BDC046380400200004014000E100E014
:1007B0000C4885460C480D490D4A002302E0D458E8
:1007C000C4500433C4188C42F9D30A4A0A4C00239B
:1007D00001E013600432A242FBD300F083F900F081
:1007E00013F9FEE700200020000000201004002084
:1007F000500C000810040020EC0D0020FEE7000063
:1008000010B5174B1B78002B1BD0164B1B78072BF2
:1008100018D0144B1B7801229A40134909780A42D8
:1008200017D012494A69022002434A610D4A591EF3
:100830001170002B05D1130007221A70084B0022FB
:100840001A7010BD084C0A482100FFF7DFFC207029
:10085000DFE706494A69022082434A61E6E7C0466B
:100860003404002005000020420400200008004855
:100870004404002000B583B0264B1B78002B24D005
:10088000254B1B78032B22D06B460022DA71224BBA
:100890001B78032B27D16B46C832DA711F4BC73A3E
:1008A0001A709023DB055A691D490A405A616A464D
:1008B000D17949005A690A435A61996980229200A4
:1008C0000A439A61134B00221A7003B000BD134B08
:1008D0001B78012BD8D1104A002313700F4A1370D4
:1008E0000C4A1370F1E70F486B46D91DFFF78EFCD9
:1008F000013005D00C4A53690C490B405361D0E7D5
:10090000044B00221A70084A516980235B000B4394
:100910005361DAE7360400202C0400204104002053
:1009200001FEFFFF4404002000080048FFFEFFFF17
:1009300010B5104B1B78002B11D00F4B1A690223F6
:1009400013405A1E93410D48027893400C4C217875
:100950001943C9B22170531E0370002A00D010BD84
:1009600007320270034B00221A700648FFF744FC5E
:10097000F5E7C046350400200008004804000020C8
:10098000400400204C08002010B5184B1B78002BA9
:1009900016D09023DB0519694908C9B2C82910D1BE
:1009A000134A516980239B004B4053610F4B002237
:1009B0001A709022D20591698023DB000B4393616A
:1009C00010BD0C48FFF718FC0B4A13680133136085
:1009D0008022D2009342E9D1074B00221A60044AD8
:1009E000516980235B004B405361DFE737040020EF
:1009F000000800484C0800203C04002010B5FFF718
:100A0000B3FEFFF717FE10BD10B52F48FFF7E6FB4A
:100A10002E48FFF7E3FB002406E02D4B195D2B4821
:100A2000FFF7EAFB0134A4B28023DB009C42F4D33D
:100A3000FFF7E4FF19E02548FFF7D0FB002406E0AC
:100A4000234B195D2148FFF7D7FB0134A4B2802363
:100A5000DB009C42F4D31F4B1B78002B1AD01E4B9B
:100A600001221A701D4B00221A701C4B1B78012B9F
:100A7000E1D01A4B1B78022B10D0164B5B78002B61
:100A80001BD0FFF781FF134B1B78002B18D0FFF70B
:100A9000F1FEEAE7124B01221A70E3E70D4B1B78D7
:100AA000002B06D00C4B01221A700C4B03221A703B
:100AB000E3E70B4B01221A70F7E7FFF739FFE2E794
:100AC000FFF79EFED1E7C0464C08002044040020FA
:100AD0000800002038040020360400202C040020E8
:100AE0003404002070B50D4B0D4D5E1BB610AB42AB
:100AF00005D0002408CD01349847A642FAD800F06A
:100B000095F8084B084D5E1BB610AB4205D000248B
:100B100008CD01349847A642FAD870BD440C0008AD
:100B2000440C00084C0C0008440C00087047C046F8
:100B30007047C046034B10B5002B02D0024800F0AE
:100B400005F810BD000000005D0B000810B50100A5
:100B500000230022002000F015F810BD70B5074CEE
:100B6000074D641BA41005D0013CA300EB58984727
:100B7000002CF9D100F060F870BDC046500C0008A0
:100B80004C0C0008F0B5D6464F4646469846244BD6
:100B9000C0B5060018689A460F009146FFF7C6FFD9
:100BA000204B1D68002D32D053466C6818681F2CEE
:100BB00030DC002E0CD1631C0234A4006B60675142
:100BC000FFF7B6FF0020E0BCBA46B146A846F0BD2C
:100BD00049468822A300EB189950C42149008C464D
:100BE000AC446146873AA240096891461143624687
:100BF00011608421424649005A50022EDBD129005F
:100C00004A468D31FF310B6813430B60D3E7064D25
:100C10001D60C9E7FFF78CFF01204042D3E7C046C3
:100C20000C040020580C00205C0C0020F8B5C046D5
:100C3000F8BC08BC9E467047F8B5C046F8BC08BC76
:040C40009E46704715
:080C4400350B00083501000822
:040C4C000901000892
:100C5000010101010707000051574257594853410C
:100C60005A4948524D444F4943454F47415A4C4BCE
:100C70005446525055584E58564A54434B4C504285
:100C800044554E4553464A595147494C445751578C
:100C900047434B4B54464646515742575948534198
:100CA0005A4948524D444F4943454F47415A4C4B8E
:100CB0005446525055584E58564A54434B4C504245
:100CC00044554E4553464A595147494C445751574C
:100CD00047434B4B54464646515742575948534158
:100CE0005A4948524D444F4943454F47415A4C4B4E
:100CF0005446525055584E58564A54434B4C504205
:100D000044554E4553464A595147494C445751570B
:100D100047434B4B54464646515742575948534117
:100D20005A4948524D444F4943454F47415A4C4B0D
:100D30005446525055584E58564A54434B4C5042C4
:100D400044554E4553464A595147494C44575157CB
:100D500047434B4B544646465157425759485341D7
:100D60005A4948524D444F4943454F47415A4C4BCD
:100D70005446525055584E58564A54434B4C504284
:100D800044554E4553464A595147494C445751578B
:100D900047434B4B54464646515742575948534197
:100DA0005A4948524D444F4943454F47415A4C4B8D
:100DB0005446525055584E58564A54434B4C504244
:100DC00044554E4553464A595147494C445751574B
:100DD00047434B4B54464646515742575948534157
:100DE0005A4948524D444F4943454F47415A4C4B4D
:100DF0005446525055584E58564A54434B4C504204
:100E000044554E4553464A595147494C445751570A
:100E100047434B4B54464646515742575948534116
:100E20005A4948524D444F4943454F47415A4C4B0C
:100E30005446525055584E58564A54434B4C5042C3
:100E400044554E4553464A595147494C44575157CA
:100E500047434B4B544646465157425759485341D6
:100E60005A4948524D444F4943454F47415A4C4BCC
:100E70005446525055584E58564A54434B4C504283
:100E800044554E4553464A595147494C445751578A
:100E900047434B4B54464646515742575948534196
:100EA0005A4948524D444F4943454F47415A4C4B8C
:100EB0005446525055584E58564A54434B4C504243
:100EC00044554E4553464A595147494C445751574A
:100ED00047434B4B54464646515742575948534156
:100EE0005A4948524D444F4943454F47415A4C4B4C
:100EF0005446525055584E58564A54434B4C504203
:100F000044554E4553464A595147494C4457515709
:100F100047434B4B54464646515742575948534115
:100F20005A4948524D444F4943454F47415A4C4B0B
:100F30005446525055584E58564A54434B4C5042C2
:100F400044554E4553464A595147494C44575157C9
:100F500047434B4B544646465157425759485341D5
:100F60005A4948524D444F4943454F47415A4C4BCB
:100F70005446525055584E58564A54434B4C504282
:100F800044554E4553464A595147494C4457515789
:100F900047434B4B54464646515742575948534195
:100FA0005A4948524D444F4943454F47415A4C4B8B
:100FB0005446525055584E58564A54434B4C504242
:100FC00044554E4553464A595147494C4457515749
:100FD00047434B4B54464646515742575948534155
:100FE0005A4948524D444F4943454F47415A4C4B4B
:100FF0005446525055584E58564A54434B4C504202
:1010000044554E4553464A595147494C4457515708
:1010100047434B4B54464646515742575948534114
:101020005A4948524D444F4943454F47415A4C4B0A
:101030005446525055584E58564A54434B4C5042C1
:1010400044554E4553464A595147494C44575157C8
:1010500047434B4B5446464600000000540C0020CA
:04000005080007B137
:00000001FF
