:020000040800F2
:100000000020002059010008A5010008A5010008F2
:1000100000000000000000000000000000000000E0
:10002000000000000000000000000000A501000822
:100030000000000000000000A5010008A501000864
:10004000A5010008A5010008A5010008A5010008F8
:10005000A5010008A5010008A5010008A5010008E8
:10006000A5010008A5010008A5010008A5010008D8
:10007000A5010008A5010008A5010008A5010008C8
:10008000A5010008A501000800000000A501000866
:10009000A5010008A5010008A5010008A5010008A8
:1000A000A5010008A5010008A5010008A501000898
:1000B000A501000800000000A501000800000000E4
:1000C0000448054B10B5834203D0044B002B00D0ED
:1000D000984710BD0400002004000020000000002C
:1000E00006480749091A8B10C90FC91810B54910DD
:1000F00003D0044B002B00D0984710BD0400002013
:10010000040000200000000010B5074C2378002BED
:1001100009D1FFF7D5FF054B002B02D0044800E0C2
:1001200000BF0123237010BD040000200000000068
:1001300040030008054B10B5002B03D004490548C7
:1001400000E000BFFFF7CCFF10BDC046000000007C
:1001500008000020400300080C4885460C480D4963
:100160000D4A002302E0D458C4500433C4188C4212
:10017000F9D30A4A0A4C002301E013600432A24278
:10018000FBD300F039F800F00FF8FEE70020002064
:100190000000002004000020640300080400002088
:1001A000B8010020FEE70000114A516980231B03BB
:1001B0000B4353610F4A116880235B020B431360AA
:1001C0000FE00133FA2292009342FADB094B8022BE
:1001D00052009A62002300E00133FA229200934217
:1001E000FADB044B802252009A610023EAE7C04602
:1001F000001002400008004870B50D4B0D4D5E1B0D
:10020000B610AB4205D0002408CD01349847A64271
:10021000FAD800F095F8084B084D5E1BB610AB42BB
:1002200005D0002408CD01349847A642FAD870BD05
:10023000580300085803000860030008580300082A
:100240007047C0467047C046034B10B5002B02D024
:10025000024800F005F810BD00000000710200081F
:1002600010B5010000230022002000F015F810BD99
:1002700070B5074C074D641BA41005D0013CA300CA
:10028000EB589847002CF9D100F060F870BDC046DB
:100290006403000860030008F0B5D6464F464646A2
:1002A0009846244BC0B5060018689A460F00914640
:1002B000FFF7C6FF204B1D68002D32D053466C68F7
:1002C00018681F2C30DC002E0CD1631C0234A400F3
:1002D0006B606751FFF7B6FF0020E0BCBA46B1463D
:1002E000A846F0BD49468822A300EB189950C421C6
:1002F00049008C46AC446146873AA2400968914661
:100300001143624611608421424649005A50022E30
:10031000DBD129004A468D31FF310B6813430B6056
:10032000D3E7064D1D60C9E7FFF78CFF012040426F
:10033000D3E7C04600000020240000202800002051
:10034000F8B5C046F8BC08BC9E467047F8B5C04634
:08035000F8BC08BC9E46704792
:0803580049020008350100080C
:040360000901000887
:040364002000002055
:040000050800015995
:00000001FF
