:020000040800F2
:100000000020002025030008710300087103000888
:1000100000000000000000000000000000000000E0
:100020000000000000000000000000007103000854
:1000300000000000000000007103000871030008C8
:1000400071030008710300087103000871030008C0
:1000500071030008750300087103000871030008AC
:1000600071030008710300082104000871030008EF
:10007000710300087103000871030008BD03000844
:1000800071030008710300080000000071030008FC
:100090007103000871030008710300087103000870
:1000A0007103000871030008710300087103000860
:1000B0007103000800000000710300080000000048
:1000C0000448054B10B5834203D0044B002B00D0ED
:1000D000984710BD0804002008040020000000001C
:1000E00006480749091A8B10C90FC91810B54910DD
:1000F00003D0044B002B00D0984710BD080400200B
:10010000080400200000000010B5074C2378002BE5
:1001100009D1FFF7D5FF054B002B02D0044800E0C2
:1001200000BF0123237010BD080400200000000060
:100130001C060008054B10B5002B03D004490548E8
:1001400000E000BFFFF7CCFF10BDC046000000007C
:100150000C0400201C060008124BC35C002B09D0C5
:10016000114BC35A01339BB28022D200934215D067
:100170000D4A83528022D200835A01339BB29342AC
:100180000ED08022D2008352835A074A825A9B1A89
:100190005A425341DBB2034A835470470023E7E7D6
:1001A0000023EEE704040000020400000023802284
:1001B000D2008352024A83520022024BC25470473B
:1001C000020400000404000010B58023DB00C35AC1
:1001D0009BB2C154FFF7C0FF10BD0000064BDB68A7
:1001E000DB07FBD4044B1B691B0604D5024B034AF7
:1001F0005A60034A5A607047002002402301674555
:10020000AB89EFCD024A136980210B43136170471C
:10021000002002400002084370470000F8B50600C5
:100220000F00FFF7DBFF194A136901210B4313612C
:1002300000240BE063005A1C154965186D00B15C81
:10024000F05CFFF7E7FF28800134A4B27B08A342EB
:10025000F0D80E4BDB68DB07FBD40C4BDB689B064E
:100260000CD40A4AD36820210B43D360074A136990
:1002700001218B431361FFF7C5FFF8BD054A5169A2
:1002800080239B000B435361F0E7C04600200240EF
:10029000007E00040008004870B504000D00FFF760
:1002A0009DFF104A136810210B43136000230AE0DE
:1002B0000D4A9A18520011885A00080AA0540132B7
:1002C000A15401339BB26A089A42F1D8054BDB680E
:1002D000DB07FBD4FFF796FF024A136810218B431C
:1002E000136070BD00200240007E00040B4B596972
:1002F000802292020A435A615969802212030A43FA
:100300005A61074B1968802252020A431A60196821
:100310008022D2020A431A607047C0460010024091
:10032000000800480C4885460C480D490D4A00233A
:1003300002E0D458C4500433C4188C42F9D30A4A9A
:100340000A4C002301E013600432A242FBD300F008
:10035000C1F800F0BBF8FEE70020002000000020FC
:10036000080400204006000808040020CC0D0020EE
:10037000FEE700000E4B5B69DB0717D50C4A53699B
:1003800001210B4353610B4B1B78022B0ED1094B00
:1003900019708023DB0500225A621A680A431A602A
:1003A000054A516980235B000B4353617047C04687
:1003B00000040140320C0020000800488023DB05C7
:1003C0001B69DB0724D58022D205136901214B402C
:1003D0001361104B1B78002B12D00E4B1B78012B96
:1003E00016D10C4B02221A708022D205136801210B
:1003F0008B431360084A536908490B40536107E077
:10040000044B02221A708022D20513688B431360BA
:100410007047C046320C002000080048FFFEFFFF76
:10042000094B1B689B0604D5074A536820210B43E0
:100430005360054B1B689B0505D5034A5168802313
:100440009B000B43536070470000024010B5FFF75C
:100450004DFF10BD70B51548FFF7A8FE1448FFF713
:10046000A5FE002409E0134B195D1048FFF7ACFE10
:100470000F480021FFF7A8FE01348023DB009C42D7
:10048000F1DB1D0009481900FFF7C8FE084C2900E0
:100490002000FFF701FF084BE35C002B05D0074A63
:1004A000516980239B000B43536170BD2C080020D1
:1004B0002404002000000020FF0300000008004882
:1004C00010B5FFF7C3FFFFF7C5FF10BD10B5FFF76D
:1004D000F7FFFEE770B50D4B0D4D5E1BB610AB423E
:1004E00005D0002408CD01349847A642FAD800F080
:1004F00095F8084B084D5E1BB610AB4205D00024A2
:1005000008CD01349847A642FAD870BD34060008D9
:10051000340600083C060008340600087047C04650
:100520007047C046034B10B5002B02D0024800F0C4
:1005300005F810BD000000004D05000810B50100D1
:1005400000230022002000F015F810BD70B5074C04
:10055000074D641BA41005D0013CA300EB5898473D
:10056000002CF9D100F060F870BDC04640060008CC
:100570003C060008F0B5D6464F4646469846244B02
:10058000C0B5060018689A460F009146FFF7C6FFEF
:10059000204B1D68002D32D053466C6818681F2C04
:1005A00030DC002E0CD1631C0234A4006B60675158
:1005B000FFF7B6FF0020E0BCBA46B146A846F0BD42
:1005C00049468822A300EB189950C42149008C4663
:1005D000AC446146873AA24009689146114362469D
:1005E00011608421424649005A50022EDBD1290075
:1005F0004A468D31FF310B6813430B60D3E7064D3C
:100600001D60C9E7FFF78CFF01204042D3E7C046D9
:1006100004040020380C00203C0C0020F8B5C04633
:10062000F8BC08BC9E467047F8B5C046F8BC08BC8C
:040630009E4670472B
:0806340025050008350100084E
:04063C0009010008A8
:1006400051574257594853415A4948524D444F49CE
:1006500043454F47415A4C4B5446525055584E58BB
:10066000564A54434B4C504244554E4553464A59C2
:100670005147494C4457515747434B4B54464646C4
:1006800051574257594853415A4948524D444F498E
:1006900043454F47415A4C4B5446525055584E587B
:1006A000564A54434B4C504244554E4553464A5982
:1006B0005147494C4457515747434B4B5446464684
:1006C00051574257594853415A4948524D444F494E
:1006D00043454F47415A4C4B5446525055584E583B
:1006E000564A54434B4C504244554E4553464A5942
:1006F0005147494C4457515747434B4B5446464644
:1007000051574257594853415A4948524D444F490D
:1007100043454F47415A4C4B5446525055584E58FA
:10072000564A54434B4C504244554E4553464A5901
:100730005147494C4457515747434B4B5446464603
:1007400051574257594853415A4948524D444F49CD
:1007500043454F47415A4C4B5446525055584E58BA
:10076000564A54434B4C504244554E4553464A59C1
:100770005147494C4457515747434B4B54464646C3
:1007800051574257594853415A4948524D444F498D
:1007900043454F47415A4C4B5446525055584E587A
:1007A000564A54434B4C504244554E4553464A5981
:1007B0005147494C4457515747434B4B5446464683
:1007C00051574257594853415A4948524D444F494D
:1007D00043454F47415A4C4B5446525055584E583A
:1007E000564A54434B4C504244554E4553464A5941
:1007F0005147494C4457515747434B4B5446464643
:1008000051574257594853415A4948524D444F490C
:1008100043454F47415A4C4B5446525055584E58F9
:10082000564A54434B4C504244554E4553464A5900
:100830005147494C4457515747434B4B5446464602
:1008400051574257594853415A4948524D444F49CC
:1008500043454F47415A4C4B5446525055584E58B9
:10086000564A54434B4C504244554E4553464A59C0
:100870005147494C4457515747434B4B54464646C2
:1008800051574257594853415A4948524D444F498C
:1008900043454F47415A4C4B5446525055584E5879
:1008A000564A54434B4C504244554E4553464A5980
:1008B0005147494C4457515747434B4B5446464682
:1008C00051574257594853415A4948524D444F494C
:1008D00043454F47415A4C4B5446525055584E5839
:1008E000564A54434B4C504244554E4553464A5940
:1008F0005147494C4457515747434B4B5446464642
:1009000051574257594853415A4948524D444F490B
:1009100043454F47415A4C4B5446525055584E58F8
:10092000564A54434B4C504244554E4553464A59FF
:100930005147494C4457515747434B4B5446464601
:1009400051574257594853415A4948524D444F49CB
:1009500043454F47415A4C4B5446525055584E58B8
:10096000564A54434B4C504244554E4553464A59BF
:100970005147494C4457515747434B4B54464646C1
:1009800051574257594853415A4948524D444F498B
:1009900043454F47415A4C4B5446525055584E5878
:1009A000564A54434B4C504244554E4553464A597F
:1009B0005147494C4457515747434B4B5446464681
:1009C00051574257594853415A4948524D444F494B
:1009D00043454F47415A4C4B5446525055584E5838
:1009E000564A54434B4C504244554E4553464A593F
:1009F0005147494C4457515747434B4B5446464641
:100A000051574257594853415A4948524D444F490A
:100A100043454F47415A4C4B5446525055584E58F7
:100A2000564A54434B4C504244554E4553464A59FE
:100A30005147494C4457515747434B4B5446464600
:080A400000000000340C00204E
:0400000508000325C7
:00000001FF
