:020000040800F2
:100000000020002085090008D1090008D109000856
:1000100000000000000000000000000000000000E0
:10002000000000000000000000000000D1090008EE
:100030000000000000000000D1090008D1090008FC
:10004000D1090008D1090008D1090008D109000828
:10005000D1090008FD0300087908000825080008F8
:10006000D1090008D10900085D060008D10900087F
:10007000D1090008D1090008D10900088904000845
:10008000FD040008D1090008000000006105000817
:10009000A9050008A9080008D1090008D10900082D
:1000A000D1090008D1090008D1090008D1090008C8
:1000B000D109000800000000D1090008000000007C
:1000C0000448054B10B5834203D0044B002B00D0ED
:1000D000984710BD340400203404002000000000C4
:1000E00006480749091A8B10C90FC91810B54910DD
:1000F00003D0044B002B00D0984710BD34040020DF
:10010000340400200000000010B5074C2378002BB9
:1001100009D1FFF7D5FF054B002B02D0044800E0C2
:1001200000BF0123237010BD340400200000000034
:100130008C0F0008054B10B5002B03D0044905486F
:1001400000E000BFFFF7CCFF10BDC046000000007C
:10015000380400208C0F0008124BC35C002B09D020
:10016000114BC35A01339BB28022D200934215D067
:100170000D4A83528022D200835A01339BB29342AC
:100180000ED08022D2008352835A074A825A9B1A89
:100190005A425341DBB2034A835470470023E7E7D6
:1001A0000023EEE70404000002040000094BC35CD6
:1001B000002B0AD18023DB00C25A92B2064BC35AED
:1001C0009BB29A4204D0002000E00020C0B27047E9
:1001D0000120FBE704040000020400000023802249
:1001E000D2008352024A83520022024BC25470470B
:1001F000020400000404000010B58023DB00C35A91
:100200009BB2C154FFF7A8FF10BD000070B50400F9
:100210000D00FFF7CBFF002813D10B4AA35A9BB266
:10022000E35C2B70A35A01339BB2023A934206D08F
:10023000054AA352054B0022E254012070BD002361
:10024000F6E701204042F9E7020400000404000040
:100250000E49CB6901221343CB610D4B0D490B6055
:100260000D490B600D490B6813430B600C390B688B
:1002700013430B600A4AC321890053581B021B0A0F
:10028000535080231B0213607047C0460010024089
:1002900083030000280000402C0000400C000040B8
:1002A00000E100E00F4AD36902210B43D3610E4BFA
:1002B0000E4A1A600E4B0F4A1A600F4A1368013932
:1002C0000B4313600D4A13680B4313600C4BC4219E
:1002D00089005A58FF2082435A50802252021A60E5
:1002E0007047C04600100240280400403F0600004E
:1002F0002C040040871300000C0400400004004060
:1003000000E100E00F4AD16980235B000B43D36119
:100310000D4B0E4A1A600E4B0E4A1A600E4A1368B5
:1003200001210B4313600D4A13680B4313600C4A01
:10033000C421890053581B021B0A535080231B03FE
:100340001360704700100240282000401F03000087
:100350002C200040871300000C20004000200040AB
:1003600000E100E00F4A916980235B020B43936137
:100370000D4B0E4A1A600E4B0E4A1A600E4A136855
:1003800001210B4313600D4A13680B4313600C4BA0
:10039000C52189005A58FF2082435A5080225203B7
:1003A0001A60704700100240284001403F1F0000C3
:1003B0002C400140871300000C40014000400140E8
:1003C00000E100E00A4B1A6801210A431A609A68AA
:1003D0000A439A60DA680A43DA60064B20221A6000
:1003E000C12189005A58044802405A507047C046FB
:1003F0000004014000E100E0FF00FFFF1E4B5B69CD
:10040000DB0738D51C4A536901210B4353611B4B51
:100410009B78002B2FD19023DB051B69DB0709D5C7
:10042000164B00225A701B78002B03D0134AD37846
:100430000133D3709023DB051B69DB070DD40F4B11
:1004400001225A701B78002B07D10D4A1368012135
:100450008B431360094B0022DA70084B012199701D
:10046000084A506980235B00034353618022D20510
:1004700013680B43136070470004014054040020CC
:100480000004004000080048164B1B68DB0727D516
:10049000144A136801214B401360134B1B78002B47
:1004A00017D1124B00229A7011494A691148024033
:1004B0004A618021C9050A680330FF3082430A601F
:1004C0005B78002B0CD10C4A136801210B4313609D
:1004D00006E0103A13688B431360034B00221A7036
:1004E0007047C04610000040000000205404002067
:1004F00000080048FFFEFFFF00040040124B1B688D
:10050000DB0717D5104A136801214B4013600F4BCE
:100510005B78002B0FD10E4A012313700D490A6836
:100520009A430A600C490A681A430A600B490A6830
:1005300013430B607047074A13688B431360034BE8
:1005400000225A70F6E7C046100400400000002068
:1005500054040020000400400020004000400140FE
:100560000D4B1B68DB070ED50B4A136801214B406E
:1005700013600A4B9B78002B06D1094A51698023EE
:100580009B004B4053617047064A13688B431360CE
:10059000024B00229A70F6E7102000400000002075
:1005A0000008004800200040204B1B68DB0733D5C3
:1005B0001E4A136801214B4013601D4BDB78002B52
:1005C0000CD11C4BDB78022B27D00FD8002B13D07B
:1005D000012B26D1184B01221A7010E0174A13681C
:1005E0008B431360124B0022DA7015E0032B18D1F5
:1005F000114B04221A7002E00F4B00221A700D4BAF
:100600000022DA701A700D4A136801218B431360BF
:100610000B4A13688B4313607047074B02221A7012
:10062000EDE7054B00221A70E9E7C0461040014093
:10063000000000205404002050040020004001402D
:100640000020004010B5FFF7BDFEFFF701FEFFF7E9
:1006500029FEFFF757FEFFF785FE10BD094B1B680B
:100660009B0604D5074A536820210B435360054B72
:100670001B689B0505D5034A516880239B000B43EB
:100680005360704700000240064BDB68DB07FBD479
:10069000044B1B691B0604D5024B034A5A60034AEC
:1006A0005A6070470020024023016745AB89EFCDB7
:1006B000024A136980210B431361704700200240F6
:1006C0000002084370470000F8B506000F00FFF76E
:1006D000DBFF194A136901210B43136100240FE06A
:1006E000154BDB68DB07FBD463005A1C1349651804
:1006F0006D00B15CF05CFFF7E3FF28800134A4B229
:100700007B08A342ECD80C4BDB689B060CD40A4A4E
:10071000D36820210B43D360074A136901218B431F
:100720001361FFF7C5FFF8BD054A516980239B009F
:100730000B435361F0E7C04600200240007E0004F6
:100740000008004870B504000D00FFF79DFF104A37
:10075000136810210B43136000220EE00C4BDB6882
:10076000DB07FBD40B4BD3185B0019885300080A36
:10077000E0540133E154013292B26B089342EDD858
:10078000FFF796FF024A136810218B43136070BD78
:1007900000200240007E0004044A936901210B43BB
:1007A0009361034B1A691A617047C04600100240FA
:1007B000000001400F4B5969802292020A435A619E
:1007C00059698022D2020A435A619023DB051A68D4
:1007D00004210A431A601A680C310A431A601A6825
:1007E00030310A431A6019688022D2000A431A6025
:1007F0007047C04600100240084A516980231B031D
:100800000B435361064B1968802252020A431A6057
:1008100019688022D2020A431A6070470010024011
:1008200000080048104B5B78002B0BD00F4B5B6926
:10083000DB0607D50D4A536910210B4353610C4B5E
:1008400001221A70084B1B78002B0BD0074B5B69F9
:100850009B0607D5054A536920210B435361054B7D
:1008600001221A707047C0465C0400200004014059
:100870005B0400205A040020084BDB78002B0BD0CF
:10088000074B5B691B0707D5054A536908210B43D2
:100890005361044B01221A707047C0465C0400206B
:1008A00000040140590400200F4B1B68DB0711D5E1
:1008B0000D4A136801214B4013600C4B1B78002B31
:1008C00009D19022D205936908210B439361084B0B
:1008D00001221A707047074A13688B431360034B59
:1008E00000221A70F6E7C0461044014004000020C0
:1008F000580400200044014010B5FFF77DFFFFF7CA
:1009000059FFFFF749FF184801214170174B1A683A
:10091000102422431A60DA682243DA60144B8022E2
:100920001A60C124A4001A591202120A1A518170C5
:100930001048846980229202224382610E48048B0F
:100940000E4A9462408BD062D0680843D060106831
:1009500001431160C52189005A58094802405A5084
:10096000802292031A6010BD5C0400200004014044
:1009700000E100E0001002400800002000440140B7
:10098000FF00FFFF0C4885460C480D490D4A002327
:1009900002E0D458C4500433C4188C42F9D30A4A34
:1009A0000A4C002301E013600432A242FBD300F0A2
:1009B00049FA00F0D9F9FEE70020002000000020ED
:1009C00034040020B00F000834040020140E00206E
:1009D000FEE7F8B506000D001700FFF7FFFB280043
:1009E000FFF7FCFB002408E0395D3000FFF704FC52
:1009F00000212800FFF700FC01348023DB009C422B
:100A0000F2DB1C0019003000FFF75EFE2100280019
:100A1000FFF798FE3000FFF7E1FB2800FFF7DEFB51
:100A2000F8BD000010B5414B1B78002B29D03F4B7F
:100A300000221A703E4B1B78072B23D03C4B1B78AF
:100A400001229A403B4909780A423ED09020C005D5
:100A50008269022422438261354A581E1070002B9D
:100A600008D1130007221A70334B1B78032B44D193
:100A7000C82932D09022D205916980231B030B43F1
:100A8000936110BD2C4B1B78032B09D1294BC83225
:100A90001A709022D205936904210B439361CDE72C
:100AA000264A536926490B4053612249254C2000B0
:100AB000FFF7ACFB244BE35C002BBFD09022D205A8
:100AC000936904210B439361B8E79020C0058469C2
:100AD0008022920222438261BEE79022D205916970
:100AE0008023DB020B439361184A136801218B4377
:100AF0001360114B00221A70BCE71248FFF756FB37
:100B00000028B7D09022D20591698023DB020B43E5
:100B100093610E4A136801218B431360074A5169A0
:100B200080235B000B435361A4E7C04658040020B8
:100B3000290000206A04002050040020000800481A
:100B4000FFFEFFFF6C04002004040000004401408D
:100B500000B583B0304B1B78002B5BD02F4B1B783C
:100B6000032B1AD06B460022DA712C4B1B78032B17
:100B70001FD16B46C832DA71294BC73A1A70294B1C
:100B80005A6929490A405A615A6969460731097800
:100B900049000A435A61002324E0214B1B78012BB2
:100BA000E0D11E4A002313701D4A13701A4A1370B5
:100BB00030E01E486B46D91DFFF728FB013005D0F9
:100BC0001B4A53691B490B405361D8E7124B002263
:100BD0001A70174A516980235B000B43536119E077
:100BE0000133DBB2072BFBD99022D2059369102188
:100BF0000B439361002301E00133DBB23F2BFBD9B0
:100C00009022D205916980235B030B439361024BD1
:100C100000221A7003B000BD5A04002050040020C6
:100C2000690400200004004801FEFFFF6C0400205E
:100C300000080048FFFEFFFF10B51E4B1B78002B7D
:100C400022D09023DB051A69022313405A1E9341D8
:100C5000194802789340194C21781943C9B2217080
:100C6000144B00241C70531E0370002A0CD1073251
:100C70000270C82909D1124A516980239B004B4058
:100C800053610E4B00221A7010BD0E48FFF7B4FAE4
:100C90000D4A1368013313608022D2009342F0D1D1
:100CA000094B00221A60064A516980235B004B40C1
:100CB0005361E6E759040020280000206804002062
:100CC00000080048740800206404002010B51E4B82
:100CD0001B78002B36D01D4B19694908C9B2C829A9
:100CE00010D11B4A516980239B004B405361164B26
:100CF00000221A709022D205936920210B43936140
:100D0000002316E01348FFF777FA134A13680133FC
:100D100013608022D2009342E9D10F4B00221A6067
:100D20000B4A516980235B004B405361DFE701337D
:100D3000DBB23F2BFBD99022D205916980239B0324
:100D40000B43936110BDC0465B04002000040048C3
:100D500000080048740800206004002010B5FFF768
:100D6000CBFDFFF76FFC10BD10B52F48FFF736FA2B
:100D7000FFF7F4FF42E02D4A2B492D48FFF729FEEB
:100D80002C4B00221A703DE02948FFF727FA002477
:100D900006E0264B195D2648FFF72EFA0134A4B26F
:100DA0008023DB009C42F4D3234B1B78002B06D01E
:100DB000224B01221A701F4B00221A7026E0204A93
:100DC000136801210B431360F5E71B4B1B78002BC5
:100DD00006D01A4B01221A70164B03221A7019E022
:100DE000174A136801210B431360F5E7FFF724FF4F
:100DF000114B1B78002B14D0FFF7AAFE0D4B1B786C
:100E0000042BB8D00B4B1B78012BBDD0094B1B78A2
:100E1000022BDAD0084B5B78002BE7D0FFF756FFA8
:100E2000E6E7FFF7FFFDE9E7740800202C0000204B
:100E30006C040020500400205C0400205A040020B0
:100E40000044014070B50D4B0D4D5E1BB610AB421A
:100E500005D0002408CD01349847A642FAD800F006
:100E600095F8084B084D5E1BB610AB4205D0002428
:100E700008CD01349847A642FAD870BDA40F0008E7
:100E8000A40F0008AC0F0008A40F00087047C0466C
:100E90007047C046034B10B5002B02D0024800F04B
:100EA00005F810BD00000000BD0E000810B50100DF
:100EB00000230022002000F015F810BD70B5074C8B
:100EC000074D641BA41005D0013CA300EB589847C4
:100ED000002CF9D100F060F870BDC046B00F0008DA
:100EE000AC0F0008F0B5D6464F4646469846244B10
:100EF000C0B5060018689A460F009146FFF7C6FF76
:100F0000204B1D68002D32D053466C6818681F2C8A
:100F100030DC002E0CD1631C0234A4006B606751DE
:100F2000FFF7B6FF0020E0BCBA46B146A846F0BDC8
:100F300049468822A300EB189950C42149008C46E9
:100F4000AC446146873AA240096891461143624623
:100F500011608421424649005A50022EDBD12900FB
:100F60004A468D31FF310B6813430B60D3E7064DC2
:100F70001D60C9E7FFF78CFF01204042D3E7C04660
:100F800030040020800C0020840C0020F8B5C046FE
:100F9000F8BC08BC9E467047F8B5C046F8BC08BC13
:040FA0009E467047B2
:080FA400950E0008350100085C
:040FAC00090100082F
:100FB0000101010101000000290363009F0063009B
:100FC0004F00630027006300170063000F006300F9
:100FD0000A006300060063000707000051574257EC
:100FE000594853415A4948524D444F4943454F4748
:100FF000415A4C4B5446525055584E58564A5443F9
:101000004B4C504244554E4553464A595147494C22
:101010004457515747434B4B544646465157425706
:10102000594853415A4948524D444F4943454F4707
:10103000415A4C4B5446525055584E58564A5443B8
:101040004B4C504244554E4553464A595147494CE2
:101050004457515747434B4B5446464651574257C6
:10106000594853415A4948524D444F4943454F47C7
:10107000415A4C4B5446525055584E58564A544378
:101080004B4C504244554E4553464A595147494CA2
:101090004457515747434B4B544646465157425786
:1010A000594853415A4948524D444F4943454F4787
:1010B000415A4C4B5446525055584E58564A544338
:1010C0004B4C504244554E4553464A595147494C62
:1010D0004457515747434B4B544646465157425746
:1010E000594853415A4948524D444F4943454F4747
:1010F000415A4C4B5446525055584E58564A5443F8
:101100004B4C504244554E4553464A595147494C21
:101110004457515747434B4B544646465157425705
:10112000594853415A4948524D444F4943454F4706
:10113000415A4C4B5446525055584E58564A5443B7
:101140004B4C504244554E4553464A595147494CE1
:101150004457515747434B4B5446464651574257C5
:10116000594853415A4948524D444F4943454F47C6
:10117000415A4C4B5446525055584E58564A544377
:101180004B4C504244554E4553464A595147494CA1
:101190004457515747434B4B544646465157425785
:1011A000594853415A4948524D444F4943454F4786
:1011B000415A4C4B5446525055584E58564A544337
:1011C0004B4C504244554E4553464A595147494C61
:1011D0004457515747434B4B544646465157425745
:1011E000594853415A4948524D444F4943454F4746
:1011F000415A4C4B5446525055584E58564A5443F7
:101200004B4C504244554E4553464A595147494C20
:101210004457515747434B4B544646465157425704
:10122000594853415A4948524D444F4943454F4705
:10123000415A4C4B5446525055584E58564A5443B6
:101240004B4C504244554E4553464A595147494CE0
:101250004457515747434B4B5446464651574257C4
:10126000594853415A4948524D444F4943454F47C5
:10127000415A4C4B5446525055584E58564A544376
:101280004B4C504244554E4553464A595147494CA0
:101290004457515747434B4B544646465157425784
:1012A000594853415A4948524D444F4943454F4785
:1012B000415A4C4B5446525055584E58564A544336
:1012C0004B4C504244554E4553464A595147494C60
:1012D0004457515747434B4B544646465157425744
:1012E000594853415A4948524D444F4943454F4745
:1012F000415A4C4B5446525055584E58564A5443F6
:101300004B4C504244554E4553464A595147494C1F
:101310004457515747434B4B544646465157425703
:10132000594853415A4948524D444F4943454F4704
:10133000415A4C4B5446525055584E58564A5443B5
:101340004B4C504244554E4553464A595147494CDF
:101350004457515747434B4B5446464651574257C3
:10136000594853415A4948524D444F4943454F47C4
:10137000415A4C4B5446525055584E58564A544375
:101380004B4C504244554E4553464A595147494C9F
:101390004457515747434B4B544646465157425783
:1013A000594853415A4948524D444F4943454F4784
:1013B000415A4C4B5446525055584E58564A544335
:1013C0004B4C504244554E4553464A595147494C5F
:1013D0004457515747434B4B544646460000000084
:0413E0007C0C002061
:040000050800098561
:00000001FF
