:020000040800F2
:100000000020002095050008E1050008E105000832
:1000100000000000000000000000000000000000E0
:10002000000000000000000000000000E1050008E2
:100030000000000000000000E1050008E1050008E4
:10004000E1050008E1050008E1050008E1050008F8
:10005000E105000875010008E10500082105000818
:10006000E1050008E10500085D040008E10500085D
:10007000E1050008E1050008E105000801020008AB
:1000800075020008E105000800000000D902000820
:1000900021030008E1050008E1050008E10500086A
:1000A000E1050008E1050008E1050008E105000898
:1000B000E105000800000000E10500080000000064
:1000C0000448054B10B5834203D0044B002B00D0ED
:1000D000984710BD08000020080000200000000024
:1000E00006480749091A8B10C90FC91810B54910DD
:1000F00003D0044B002B00D0984710BD080000200F
:10010000080000200000000010B5074C2378002BE9
:1001100009D1FFF7D5FF054B002B02D0044800E0C2
:1001200000BF0123237010BD080000200000000064
:100130002C080008054B10B5002B03D004490548D6
:1001400000E000BFFFF7CCFF10BDC046000000007C
:100150000C0000202C08000800238022D2008352CB
:10016000024A83520022024BC2547047020400002C
:10017000040400001E4B5B69DB0738D51C4A536939
:1001800001210B4353611B4B9B78002B2FD19023F4
:10019000DB051B69DB0709D5164B00225A701B785B
:1001A000002B03D0134AD3780133D3709023DB059F
:1001B0001B69DB070DD40F4B01225A701B78002BF3
:1001C00007D10D4A136801218B431360094B0022AC
:1001D000DA70084B01219970084A506980235B004E
:1001E000034353618022D20513680B4313607047A9
:1001F00000040140280000200004004000080048DE
:10020000164B1B68DB0727D5144A136801214B40A6
:100210001360134B1B78002B17D1124B00229A70DE
:1002200011494A69114802404A618021C9050A689A
:100230000330FF3082430A605B78002B0CD10C4AFC
:10024000136801210B43136006E0103A13688B43D7
:100250001360034B00221A707047C0461000004024
:10026000000000202800002000080048FFFEFFFFDB
:1002700000040040124B1B68DB0717D5104A1368B7
:1002800001214B4013600F4B5B78002B0FD10E4ABE
:10029000012313700D490A689A430A600C490A68E1
:1002A0001A430A600B490A6813430B607047074AF8
:1002B00013688B431360034B00225A70F6E7C04665
:1002C000100400400000002028000020000400402E
:1002D00000200040004001400D4B1B68DB070ED59D
:1002E0000B4A136801214B4013600A4B9B78002B8B
:1002F00006D1094A516980239B004B4053617047E6
:10030000064A13688B431360024B00229A70F6E78B
:10031000102000400000002000080048002000409D
:100320001C4B1B68DB072CD51A4A136801214B4074
:100330001360194BDB78002B0BD1184BDB78012BAA
:1003400020D0022B22D0002B0BD0154B00221A708C
:100350000AE0144A13688B4313600F4B0022DA70D3
:100360000FE00F4B00221A700C4B0022DA701A704B
:100370000C4A136801218B4313600B4A13688B43AB
:1003800013607047064B01221A70EDE7044B0222FE
:100390001A70E9E71040014000000020280000200A
:1003A0002400002000400140002000400B4B1A6850
:1003B00080210A431A601A6870390A431A601A6861
:1003C00010310A431A600A225A60054A9A60D860BE
:1003D0001A681E390A431A607047C0461C00024062
:1003E000283801400B4B1A6880210A431A601A68AA
:1003F00070398A431A601A6810310A431A600A2257
:100400005A60054A9A60D8601A681E390A431A6011
:100410007047C04630000240243801400B4BC220D8
:10042000800019580A4A11408022D2030A431A5008
:100430008022D2001A60074A136801210B4313601F
:10044000054A13680B4313607047C04600E100E0A3
:10045000FFFF00FF1C00024030000240094B1B68F8
:100460009B0604D5074A536820210B435360054B74
:100470001B689B0505D5034A516880239B000B43ED
:10048000536070470000024010B50C00064A5369E3
:1004900001210B435361FFF789FF2000FFF7A2FF03
:1004A000FFF7BCFF10BDC046001002409023DB05E3
:1004B0001968A02292030A431A60596A88225200DE
:1004C0000A435A6270470000074B1A680C210A431E
:1004D0001A60064ADA609A68B4310A439A601A6868
:1004E000BF390A431A6070470038014041030000D9
:1004F00010B5054A91698023DB010B439361FFF737
:10050000D5FFFFF7E1FF10BD0010024070B50400F9
:100510000D00FFF7EDFF29002000FFF7B5FF70BDCC
:10052000184B5B78002B13D0174B5B699B050FD5DD
:10053000154A516980239B000B435361134B0122E1
:100540001A709022D20591698023DB040B439361DA
:100550000C4B1B78002B13D00B4B5B695B050FD545
:10056000094A51698023DB000B435361084B012288
:100570001A709022D205916980239B040B439361EA
:100580007047C04630000020000401402D000020CC
:100590002C0000200C4885460C480D490D4A0023CC
:1005A00002E0D458C4500433C4188C42F9D30A4A28
:1005B0000A4C002301E013600432A242FBD300F096
:1005C00049F800F019F8FEE70020002000000020A4
:1005D000080000205008000808000020DC09002066
:1005E000FEE7000010B502490248FFF78FFF10BD7B
:1005F000340000203C04002010B5124B59698022C1
:1006000012030A435A61104A1068802149020143CB
:10061000116010688021C90201431160596980226C
:1006200092020A435A61FFF7DDFF0848FFF794FD85
:100630000748FFF791FD064804498022D20000F0E8
:1006400031F8F8E7001002400008004834000020AC
:100650003C04002070B50D4B0D4D5E1BB610AB4237
:1006600005D0002408CD01349847A642FAD800F0FE
:10067000DDF8084B084D5E1BB610AB4205D00024D8
:1006800008CD01349847A642FAD870BD4408000846
:10069000440800084C080008440800087047C04699
:1006A0007047C046F0B505000F2A33D90324030074
:1006B00026000B431E401C4237D11500103D2D096A
:1006C00003000C00AC462F013F1865685D60A5680B
:1006D0009D60E568DD60256810341D601D001033E5
:1006E000BD42F2D165460F230C2401352D01491975
:1006F0001340451914421AD08C59AC5104369C1B36
:10070000032CF9D8043B9B0801339B00ED18C91852
:1007100003231A40561E002A06D00023CC5C1A0080
:10072000EC5401339642F9D1F0BD561EF5E71A009C
:10073000F0E7C046034B10B5002B02D0024800F092
:1007400005F810BD000000005D07000810B50100AD
:1007500000230022002000F015F810BD70B5074CF2
:10076000074D641BA41005D0013CA300EB5898472B
:10077000002CF9D100F060F870BDC04650080008A8
:100780004C080008F0B5D6464F4646469846244BDE
:10079000C0B5060018689A460F009146FFF77EFF25
:1007A000204B1D68002D32D053466C6818681F2CF2
:1007B00030DC002E0CD1631C0234A4006B60675146
:1007C000FFF76EFF0020E0BCBA46B146A846F0BD78
:1007D00049468822A300EB189950C42149008C4651
:1007E000AC446146873AA24009689146114362468B
:1007F00011608421424649005A50022EDBD1290063
:100800004A468D31FF310B6813430B60D3E7064D29
:100810001D60C9E7FFF744FF01204042D3E7C0460F
:1008200004000020480800204C080020F8B5C0460D
:10083000F8BC08BC9E467047F8B5C046F8BC08BC7A
:040840009E46704719
:0808440035070008350100082A
:04084C000901000896
:08085000010101014408002030
:040000050800059555
:00000001FF
