:020000040800F2
:1000000000200020E5040008310500083105000843
:1000100000000000000000000000000000000000E0
:100020000000000000000000000000003105000892
:100030000000000000000000310500083105000844
:1000400031050008310500083105000831050008B8
:1000500031050008210200083105000831050008BB
:100060003105000831050008910500083105000838
:10007000310500083105000831050008D9020008E3
:1000800041030008310500080000000031050008A8
:100090003105000831050008310500083105000868
:1000A0003105000831050008310500083105000858
:1000B00031050008000000003105000800000000C4
:1000C0000448054B10B5834203D0044B002B00D0ED
:1000D000984710BD08000020080000200000000024
:1000E00006480749091A8B10C90FC91810B54910DD
:1000F00003D0044B002B00D0984710BD080000200F
:10010000080000200000000010B5074C2378002BE9
:1001100009D1FFF7D5FF054B002B02D0044800E0C2
:1001200000BF0123237010BD080000200000000064
:1001300030070008054B10B5002B03D004490548D3
:1001400000E000BFFFF7CCFF10BDC046000000007C
:100150000C000020300700080D4AD36901210B4331
:10016000D3618023DB050B4A9A62DA62DA680A43BC
:10017000DA601A680A431A60074AC3218900535893
:100180001B021B0A535080231B0213607047C0469A
:10019000001002408303000000E100E00D4AD36933
:1001A00002210B43D3610C4B0C4A9A620C4ADA626F
:1001B000DA6801390A43DA601A680A431A60094B9F
:1001C000C42189005A58FF2082435A50802252028B
:1001D0001A60704700100240000400403F06000013
:1001E0008713000000E100E00A4B1A6801210A436E
:1001F0001A609A680A439A60DA680A43DA60064B22
:10020000C12189005A58054802405A5020221A60DC
:100210007047C0460004014000E100E0FF00FFFF1E
:10022000254B5B69DB072FD5234A536901210B431B
:100230005361224B1B78002B26D19023DB051B69D1
:10024000DB0706D41E4B1B78002B02D11D4B01226D
:100250001A709023DB051B69DB0703D5184B1B784D
:10026000012B12D0154B01221A701B78002B0BD0DA
:100270008022D205136801210B431360124A516991
:1002800080235B000B4353617047104A137801339E
:10029000DBB21370022BE5D10D4A136801218B43A9
:1002A0001360074B00221A70084B1A70064A5369F4
:1002B00008490B405361D5E70004014025000020A8
:1002C000270000202600002000080048240000200D
:1002D00000040040FFFDFFFF8023DB051B69DB07F7
:1002E0001BD58022D205136901214B4013610F4BAE
:1002F0001B78002B12D18022D205136801218B4379
:1003000013600B4A13680B4313600A4A53690A4986
:100310000B405361094B00221A70704713688B43DE
:100320001360024B00221A70F7E7C046010000205C
:100330000004004000080048FFFEFFFF25000020E9
:10034000184B1B69DB071AD5164A136901214B406C
:100350001361154B1B78002B12D1144B1B78002B0B
:1003600015D0104A136801218B4313600F4B0022F4
:100370001A700F4B1A700E4B1B78012B0BD0704765
:1003800013688B431360084B00221A70F7E7084B81
:1003900001221A70EFE7074A516980239B004B4006
:1003A0005361ECE70004004000000020260000201C
:1003B000270000200008004810B5064A9369012173
:1003C0000B439361FFF710FFFFF7C6FEFFF7E6FE52
:1003D00010BDC046001002400B4B1A6880210A4332
:1003E0001A601A6870390A431A601A6810310A4391
:1003F0001A608022D2005A60044A9A60D8601A6853
:100400001E390A431A6070471C0002402838014018
:100410000B4B1A6880210A431A601A6870398A43A4
:100420001A601A6810310A431A608022D2005A609A
:10043000044A9A60D8601A681E390A431A607047E5
:1004400030000240243801400B4BC2208000195874
:100450000A4A11408022D2030A431A508022D20055
:100460001A60074A136801210B431360054A136899
:100470000B4313607047C04600E100E0FFFF00FF40
:100480001C0002403000024010B50C00064A5369BF
:1004900001210B435361FFF79FFF2000FFF7B8FFD7
:1004A000FFF7D2FF10BDC046001002400B4B596948
:1004B000802292020A435A615969802212030A4338
:1004C0005A61074B1968802252020A431A60196860
:1004D0008022D2020A431A607047C04600100240D0
:1004E000000800480C4885460C480D490D4A002379
:1004F00002E0D458C4500433C4188C42F9D30A4AD9
:100500000A4C002301E013600432A242FBD300F046
:100510006BF800F065F8FEE70020002000000020E6
:10052000080000205407000808000020D00900201F
:10053000FEE79023DB051968A02292030A431A60A4
:10054000596A882252000A435A627047074B1A6858
:100550000C210A431A60064ADA609A68B4310A43E9
:100560009A601A68BF390A431A6070470038014020
:100570004103000010B5054A91698023DB010B435C
:100580009361FFF7D6FFFFF7E1FF10BD00100240B7
:100590000A4B1B689B0606D59022D2055169802321
:1005A0005B000B435361054B1B689B0505D5034A54
:1005B000516880239B000B4353607047000002404A
:1005C00010B5FFF773FFFFF7D5FF03490348FFF7A7
:1005D0005BFFFFF7F1FE10BD280000203004002073
:1005E00010B5FFF7EDFFFEE770B50D4B0D4D5E1B2F
:1005F000B610AB4205D0002408CD01349847A6427E
:10060000FAD800F095F8084B084D5E1BB610AB42C7
:1006100005D0002408CD01349847A642FAD870BD11
:100620004807000848070008500700084807000866
:100630007047C0467047C046034B10B5002B02D030
:10064000024800F005F810BD000000006106000837
:1006500010B5010000230022002000F015F810BDA5
:1006600070B5074C074D641BA41005D0013CA300D6
:10067000EB589847002CF9D100F060F870BDC046E7
:100680005407000850070008F0B5D6464F464646C6
:100690009846244BC0B5060018689A460F0091464C
:1006A000FFF7C6FF204B1D68002D32D053466C6803
:1006B00018681F2C30DC002E0CD1631C0234A400FF
:1006C0006B606751FFF7B6FF0020E0BCBA46B14649
:1006D000A846F0BD49468822A300EB189950C421D2
:1006E00049008C46AC446146873AA240096891466D
:1006F0001143624611608421424649005A50022E3D
:10070000DBD129004A468D31FF310B6813430B6062
:10071000D3E7064D1D60C9E7FFF78CFF012040427B
:10072000D3E7C046040000203C0800204008002019
:10073000F8B5C046F8BC08BC9E467047F8B5C04640
:08074000F8BC08BC9E4670479E
:08074800390600083501000824
:040750000901000893
:0807540001010000380800203B
:04000005080004E506
:00000001FF
