:020000040800F2
:1000000000200020B50700080108000801080008CA
:1000100000000000000000000000000000000000E0
:1000200000000000000000000000000001080008BF
:10003000000000000000000001080008010800089E
:10004000010800080108000801080008010800086C
:1000500001080008FD03000801080008F90600086F
:1000600001080008010800084D0600080108000802
:1000700001080008010800080108000889040008B8
:10008000FD040008010800080000000061050008E8
:10009000A905000801080008010800080108000877
:1000A000010800080108000801080008010800080C
:1000B000010800080000000001080008000000001E
:1000C0000448054B10B5834203D0044B002B00D0ED
:1000D000984710BD0C0400200C0400200000000014
:1000E00006480749091A8B10C90FC91810B54910DD
:1000F00003D0044B002B00D0984710BD0C04002007
:100100000C0400200000000010B5074C2378002BE1
:1001100009D1FFF7D5FF054B002B02D0044800E0C2
:1001200000BF0123237010BD0C040020000000005C
:10013000380B0008054B10B5002B03D004490548C7
:1001400000E000BFFFF7CCFF10BDC046000000007C
:1001500010040020380B0008124BC35C002B09D0A0
:10016000114BC35A01339BB28022D200934215D067
:100170000D4A83528022D200835A01339BB29342AC
:100180000ED08022D2008352835A074A825A9B1A89
:100190005A425341DBB2034A835470470023E7E7D6
:1001A0000023EEE70404000002040000094BC35CD6
:1001B000002B0AD18023DB00C25A92B2064BC35AED
:1001C0009BB29A4204D0002000E00020C0B27047E9
:1001D0000120FBE704040000020400000023802249
:1001E000D2008352024A83520022024BC25470470B
:1001F000020400000404000010B58023DB00C35A91
:100200009BB2C154FFF7A8FF10BD000070B50400F9
:100210000D00FFF7CBFF002813D10B4AA35A9BB266
:10022000E35C2B70A35A01339BB2023A934206D08F
:10023000054AA352054B0022E254012070BD002361
:10024000F6E701204042F9E7020400000404000040
:100250000E49CB6901221343CB610D4B0D490B6055
:100260000D490B600D490B6813430B600C390B688B
:1002700013430B600A4AC321890053581B021B0A0F
:10028000535080231B0213607047C0460010024089
:1002900083030000280000402C0000400C000040B8
:1002A00000E100E00F4AD36902210B43D3610E4BFA
:1002B0000E4A1A600E4B0F4A1A600F4A1368013932
:1002C0000B4313600D4A13680B4313600C4BC4219E
:1002D00089005A58FF2082435A50802252021A60E5
:1002E0007047C04600100240280400403F0600004E
:1002F0002C040040871300000C0400400004004060
:1003000000E100E00F4AD16980235B000B43D36119
:100310000D4B0E4A1A600E4B0E4A1A600E4A1368B5
:1003200001210B4313600D4A13680B4313600C4A01
:10033000C421890053581B021B0A535080231B03FE
:100340001360704700100240282000401F03000087
:100350002C200040871300000C20004000200040AB
:1003600000E100E00F4A916980235B020B43936137
:100370000D4B0E4A1A600E4B0E4A1A600E4A136855
:1003800001210B4313600D4A13680B4313600C4BA0
:10039000C52189005A58FF2082435A5080225203B7
:1003A0001A60704700100240284001403F1F0000C3
:1003B0002C400140871300000C40014000400140E8
:1003C00000E100E00A4B1A6801210A431A609A68AA
:1003D0000A439A60DA680A43DA60064B20221A6000
:1003E000C12189005A58044802405A507047C046FB
:1003F0000004014000E100E0FF00FFFF1E4B5B69CD
:10040000DB0738D51C4A536901210B4353611B4B51
:100410009B78002B2FD19023DB051B69DB0709D5C7
:10042000164B00225A701B78002B03D0134AD37846
:100430000133D3709023DB051B69DB070DD40F4B11
:1004400001225A701B78002B07D10D4A1368012135
:100450008B431360094B0022DA70084B012199701D
:10046000084A506980235B00034353618022D20510
:1004700013680B4313607047000401402C040020F4
:100480000004004000080048164B1B68DB0727D516
:10049000144A136801214B401360134B1B78002B47
:1004A00017D1124B00229A7011494A691148024033
:1004B0004A618021C9050A680330FF3082430A601F
:1004C0005B78002B0CD10C4A136801210B4313609D
:1004D00006E0103A13688B431360034B00221A7036
:1004E0007047C04610000040000000202C0400208F
:1004F00000080048FFFEFFFF00040040124B1B688D
:10050000DB0717D5104A136801214B4013600F4BCE
:100510005B78002B0FD10E4A012313700D490A6836
:100520009A430A600C490A681A430A600B490A6830
:1005300013430B607047074A13688B431360034BE8
:1005400000225A70F6E7C046100400400000002068
:100550002C04002000040040002000400040014026
:100560000D4B1B68DB070ED50B4A136801214B406E
:1005700013600A4B9B78002B06D1094A51698023EE
:100580009B004B4053617047064A13688B431360CE
:10059000024B00229A70F6E7102000400000002075
:1005A00000080048002000401C4B1B68DB072CD5CE
:1005B0001A4A136801214B401360194BDB78002B5A
:1005C0000BD1184BDB78012B20D0022B22D0002B33
:1005D0000BD0154B00221A700AE0144A13688B43A3
:1005E00013600F4B0022DA700FE00F4B00221A70DD
:1005F0000C4B0022DA701A700C4A136801218B43ED
:1006000013600B4A13688B4313607047064B01223B
:100610001A70EDE7044B02221A70E9E7104001401E
:10062000000000202C04002028040020004001408D
:100630000020004010B5FFF7C5FEFFF709FEFFF7E9
:1006400031FEFFF75FFEFFF78DFE10BD094B1B6803
:100650009B0604D5074A536820210B435360054B82
:100660001B689B0505D5034A516880239B000B43FB
:100670005360704700000240074A936901210B4311
:100680009361064B9A689A60DA68DA601A691A61AF
:100690001A691A617047C04600100240000001400C
:1006A000094B5969802292020A435A615969802292
:1006B000D2020A435A619022D205116880235B035B
:1006C0000B4313607047C04600100240084A51694E
:1006D00080231B030B435361064B1968802252028F
:1006E0000A431A6019688022D2020A431A607047CE
:1006F0000010024000080048184B5B78002B13D014
:10070000174B5B699B050FD5154A516980239B00E8
:100710000B435361134B01221A709022D205916949
:100720008023DB040B4393610C4B1B78002B13D00D
:100730000B4B5B695B050FD5094A51698023DB00D0
:100740000B435361084B01221A709022D205916924
:1007500080239B040B4393617047C0463404002000
:1007600000040140310400203004002010B5FFF7E0
:10077000ADFFFFF795FFFFF77FFF0B4B01225A708C
:100780000A4B1968802292001143196099680A4344
:100790009A60074A80231360C121890053581B02C5
:1007A0001B0A535010BDC046340400200004014011
:1007B00000E100E00C4885460C480D490D4A002335
:1007C00002E0D458C4500433C4188C42F9D30A4A06
:1007D0000A4C002301E013600432A242FBD300F074
:1007E00007F900F0ADF8FEE700200020000000202F
:1007F0000C0400205C0B00080C040020E80D002015
:10080000FEE7000000B583B0264B1B78002B24D0F8
:10081000254B1B78032B22D06B460022DA71224B2A
:100820001B78032B27D16B46C832DA711F4BC73AAE
:100830001A709023DB055A691D490A405A616A46BD
:10084000D17949005A690A435A6199698022920014
:100850000A439A61134B00221A7003B000BD134B78
:100860001B78012BD8D1104A002313700F4A137044
:100870000C4A1370F1E70F486B46D91DFFF7C6FC11
:10088000013005D00C4A53690C490B405361D0E745
:10089000044B00221A70084A516980235B000B4305
:1008A0005361DAE730040020280400203C040020D3
:1008B00001FEFFFF4004002000080048FFFEFFFF8C
:1008C00010B5184B1B78002B16D09023DB05196947
:1008D0004908C9B2C82910D1134A516980239B0025
:1008E0004B4053610F4B00221A709022D205916940
:1008F0008023DB000B43936110BD0C48FFF77CFCA9
:100900000B4A1368013313608022D2009342E9D16D
:10091000074B00221A60044A516980235B004B4058
:100920005361DFE731040020000800484808002038
:100930003804002010B5FFF719FFFFF77BFE10BD4C
:1009400010B52548FFF74AFC2448FFF747FC002470
:1009500006E0234B195D2148FFF74EFC0134A4B299
:100960008023DB009C42F4D3FFF7E4FF1EE01B482A
:10097000FFF734FC002406E0194B195D1748FFF718
:100980003BFC0134A4B28023DB009C42F4D3154B22
:1009900001221A70144B00221A7007E0134B5B7887
:1009A000002B12D1114B1B78002B11D10E4B1B7851
:1009B000012BDCD00C4B1B78022BEFD1094B012211
:1009C0001A70094B02321A70E8E7FFF779FFE9E77E
:1009D000FFF718FFEAE7C04648080020400400205F
:1009E00004000020300400202804002034040020EB
:1009F00070B50D4B0D4D5E1BB610AB4205D00024FB
:100A000008CD01349847A642FAD800F095F8084B73
:100A1000084D5E1BB610AB4205D0002408CD013452
:100A20009847A642FAD870BD500B0008500B00083A
:100A3000580B0008500B00087047C0467047C0466E
:100A4000034B10B5002B02D0024800F005F810BD92
:100A500000000000690A000810B501000023002210
:100A6000002000F015F810BD70B5074C074D641B51
:100A7000A41005D0013CA300EB589847002CF9D1F5
:100A800000F060F870BDC0465C0B0008580B000811
:100A9000F0B5D6464F4646469846244BC0B50600AC
:100AA00018689A460F009146FFF7C6FF204B1D6855
:100AB000002D32D053466C6818681F2C30DC002E95
:100AC0000CD1631C0234A4006B606751FFF7B6FFC2
:100AD0000020E0BCBA46B146A846F0BD494688228F
:100AE000A300EB189950C42149008C46AC446146E0
:100AF000873AA240096891461143624611608421F9
:100B0000424649005A50022EDBD129004A468D3117
:100B1000FF310B6813430B60D3E7064D1D60C9E737
:100B2000FFF78CFF01204042D3E7C04608040020B5
:100B3000540C0020580C0020F8B5C046F8BC08BC86
:100B40009E467047F8B5C046F8BC08BC9E46704744
:080B5000410A0008350100080C
:040B58000901000887
:100B5C000101010151574257594853415A494852D2
:100B6C004D444F4943454F47415A4C4B54465250C4
:100B7C0055584E58564A54434B4C504244554E458A
:100B8C0053464A595147494C4457515747434B4B8D
:100B9C005446464651574257594853415A49485270
:100BAC004D444F4943454F47415A4C4B5446525084
:100BBC0055584E58564A54434B4C504244554E454A
:100BCC0053464A595147494C4457515747434B4B4D
:100BDC005446464651574257594853415A49485230
:100BEC004D444F4943454F47415A4C4B5446525044
:100BFC0055584E58564A54434B4C504244554E450A
:100C0C0053464A595147494C4457515747434B4B0C
:100C1C005446464651574257594853415A494852EF
:100C2C004D444F4943454F47415A4C4B5446525003
:100C3C0055584E58564A54434B4C504244554E45C9
:100C4C0053464A595147494C4457515747434B4BCC
:100C5C005446464651574257594853415A494852AF
:100C6C004D444F4943454F47415A4C4B54465250C3
:100C7C0055584E58564A54434B4C504244554E4589
:100C8C0053464A595147494C4457515747434B4B8C
:100C9C005446464651574257594853415A4948526F
:100CAC004D444F4943454F47415A4C4B5446525083
:100CBC0055584E58564A54434B4C504244554E4549
:100CCC0053464A595147494C4457515747434B4B4C
:100CDC005446464651574257594853415A4948522F
:100CEC004D444F4943454F47415A4C4B5446525043
:100CFC0055584E58564A54434B4C504244554E4509
:100D0C0053464A595147494C4457515747434B4B0B
:100D1C005446464651574257594853415A494852EE
:100D2C004D444F4943454F47415A4C4B5446525002
:100D3C0055584E58564A54434B4C504244554E45C8
:100D4C0053464A595147494C4457515747434B4BCB
:100D5C005446464651574257594853415A494852AE
:100D6C004D444F4943454F47415A4C4B54465250C2
:100D7C0055584E58564A54434B4C504244554E4588
:100D8C0053464A595147494C4457515747434B4B8B
:100D9C005446464651574257594853415A4948526E
:100DAC004D444F4943454F47415A4C4B5446525082
:100DBC0055584E58564A54434B4C504244554E4548
:100DCC0053464A595147494C4457515747434B4B4B
:100DDC005446464651574257594853415A4948522E
:100DEC004D444F4943454F47415A4C4B5446525042
:100DFC0055584E58564A54434B4C504244554E4508
:100E0C0053464A595147494C4457515747434B4B0A
:100E1C005446464651574257594853415A494852ED
:100E2C004D444F4943454F47415A4C4B5446525001
:100E3C0055584E58564A54434B4C504244554E45C7
:100E4C0053464A595147494C4457515747434B4BCA
:100E5C005446464651574257594853415A494852AD
:100E6C004D444F4943454F47415A4C4B54465250C1
:100E7C0055584E58564A54434B4C504244554E4587
:100E8C0053464A595147494C4457515747434B4B8A
:100E9C005446464651574257594853415A4948526D
:100EAC004D444F4943454F47415A4C4B5446525081
:100EBC0055584E58564A54434B4C504244554E4547
:100ECC0053464A595147494C4457515747434B4B4A
:100EDC005446464651574257594853415A4948522D
:100EEC004D444F4943454F47415A4C4B5446525041
:100EFC0055584E58564A54434B4C504244554E4507
:100F0C0053464A595147494C4457515747434B4B09
:100F1C005446464651574257594853415A494852EC
:100F2C004D444F4943454F47415A4C4B5446525000
:100F3C0055584E58564A54434B4C504244554E45C6
:100F4C0053464A595147494C4457515747434B4BC9
:0C0F5C005446464600000000500C0020E7
:04000005080007B533
:00000001FF
