:020000040800F2
:1000000000200020310800087D0800087D08000855
:1000100000000000000000000000000000000000E0
:100020000000000000000000000000007D08000843
:1000300000000000000000007D0800087D080008A6
:100040007D0800087D0800087D0800087D0800087C
:100050007D080008FD03000849070008F1060008B4
:100060007D0800087D0800084D0600087D0800088E
:100070007D0800087D0800087D0800088904000844
:10008000FD0400087D08000800000000610500086C
:10009000A9050008790700087D0800087D08000808
:1000A0007D0800087D0800087D0800087D0800081C
:1000B0007D080008000000007D0800080000000026
:1000C0000448054B10B5834203D0044B002B00D0ED
:1000D000984710BD340400203404002000000000C4
:1000E00006480749091A8B10C90FC91810B54910DD
:1000F00003D0044B002B00D0984710BD34040020DF
:10010000340400200000000010B5074C2378002BB9
:1001100009D1FFF7D5FF054B002B02D0044800E0C2
:1001200000BF0123237010BD340400200000000034
:10013000D40D0008054B10B5002B03D00449054829
:1001400000E000BFFFF7CCFF10BDC046000000007C
:1001500038040020D40D0008124BC35C002B09D0DA
:10016000114BC35A01339BB28022D200934215D067
:100170000D4A83528022D200835A01339BB29342AC
:100180000ED08022D2008352835A074A825A9B1A89
:100190005A425341DBB2034A835470470023E7E7D6
:1001A0000023EEE70404000002040000094BC35CD6
:1001B000002B0AD18023DB00C25A92B2064BC35AED
:1001C0009BB29A4204D0002000E00020C0B27047E9
:1001D0000120FBE704040000020400000023802249
:1001E000D2008352024A83520022024BC25470470B
:1001F000020400000404000010B58023DB00C35A91
:100200009BB2C154FFF7A8FF10BD000070B50400F9
:100210000D00FFF7CBFF002813D10B4AA35A9BB266
:10022000E35C2B70A35A01339BB2023A934206D08F
:10023000054AA352054B0022E254012070BD002361
:10024000F6E701204042F9E7020400000404000040
:100250000E49CB6901221343CB610D4B0D490B6055
:100260000D490B600D490B6813430B600C390B688B
:1002700013430B600A4AC321890053581B021B0A0F
:10028000535080231B0213607047C0460010024089
:1002900083030000280000402C0000400C000040B8
:1002A00000E100E00F4AD36902210B43D3610E4BFA
:1002B0000E4A1A600E4B0F4A1A600F4A1368013932
:1002C0000B4313600D4A13680B4313600C4BC4219E
:1002D00089005A58FF2082435A50802252021A60E5
:1002E0007047C04600100240280400403F0600004E
:1002F0002C040040871300000C0400400004004060
:1003000000E100E00F4AD16980235B000B43D36119
:100310000D4B0E4A1A600E4B0E4A1A600E4A1368B5
:1003200001210B4313600D4A13680B4313600C4A01
:10033000C421890053581B021B0A535080231B03FE
:100340001360704700100240282000401F03000087
:100350002C200040871300000C20004000200040AB
:1003600000E100E00F4A916980235B020B43936137
:100370000D4B0E4A1A600E4B0E4A1A600E4A136855
:1003800001210B4313600D4A13680B4313600C4BA0
:10039000C52189005A58FF2082435A5080225203B7
:1003A0001A60704700100240284001403F1F0000C3
:1003B0002C400140871300000C40014000400140E8
:1003C00000E100E00A4B1A6801210A431A609A68AA
:1003D0000A439A60DA680A43DA60064B20221A6000
:1003E000C12189005A58044802405A507047C046FB
:1003F0000004014000E100E0FF00FFFF1E4B5B69CD
:10040000DB0738D51C4A536901210B4353611B4B51
:100410009B78002B2FD19023DB051B69DB0709D5C7
:10042000164B00225A701B78002B03D0134AD37846
:100430000133D3709023DB051B69DB070DD40F4B11
:1004400001225A701B78002B07D10D4A1368012135
:100450008B431360094B0022DA70084B012199701D
:10046000084A506980235B00034353618022D20510
:1004700013680B43136070470004014054040020CC
:100480000004004000080048164B1B68DB0727D516
:10049000144A136801214B401360134B1B78002B47
:1004A00017D1124B00229A7011494A691148024033
:1004B0004A618021C9050A680330FF3082430A601F
:1004C0005B78002B0CD10C4A136801210B4313609D
:1004D00006E0103A13688B431360034B00221A7036
:1004E0007047C04610000040000000205404002067
:1004F00000080048FFFEFFFF00040040124B1B688D
:10050000DB0717D5104A136801214B4013600F4BCE
:100510005B78002B0FD10E4A012313700D490A6836
:100520009A430A600C490A681A430A600B490A6830
:1005300013430B607047074A13688B431360034BE8
:1005400000225A70F6E7C046100400400000002068
:1005500054040020000400400020004000400140FE
:100560000D4B1B68DB070ED50B4A136801214B406E
:1005700013600A4B9B78002B06D1094A51698023EE
:100580009B004B4053617047064A13688B431360CE
:10059000024B00229A70F6E7102000400000002075
:1005A00000080048002000401C4B1B68DB072CD5CE
:1005B0001A4A136801214B401360194BDB78002B5A
:1005C0000BD1184BDB78012B20D0022B22D0002B33
:1005D0000BD0154B00221A700AE0144A13688B43A3
:1005E00013600F4B0022DA700FE00F4B00221A70DD
:1005F0000C4B0022DA701A700C4A136801218B43ED
:1006000013600B4A13688B4313607047064B01223B
:100610001A70EDE7044B02221A70E9E7104001401E
:10062000000000205404002050040020004001403D
:100630000020004010B5FFF7C5FEFFF709FEFFF7E9
:1006400031FEFFF75FFEFFF78DFE10BD094B1B6803
:100650009B0604D5074A536820210B435360054B82
:100660001B689B0505D5034A516880239B000B43FB
:100670005360704700000240024A936901210B4316
:1006800093617047001002400C4B5969802292021E
:100690000A435A6159698022D2020A435A61084BBF
:1006A0001A6804210A431A601A680C310A431A6056
:1006B0001A6830310A431A607047C0460010024081
:1006C00000080048084A516980231B030B4353610B
:1006D000064B1968802252020A431A601968802268
:1006E000D2020A431A607047001002400008004816
:1006F000114B5B78002B0CD0104B5B695B0508D568
:100700000E4A51698023DB000B4353610C4B0122DD
:100710001A70094B1B78002B0CD0084B5B691B052A
:1007200008D5064A516980231B010B435361054BD1
:1007300001221A707047C0465C040020000401408A
:100740005B0400205A040020084BDB78002B0BD000
:10075000074B5B691B0707D5054A536908210B4303
:100760005361044B01221A707047C0465C0400209C
:1007700000040140590400200E4B1B68DB0710D514
:100780000C4A136801214B4013600B4B1B78002B64
:1007900008D10A4A936908210B439361084B01224F
:1007A0001A707047074A13688B431360024B00228C
:1007B0001A70F6E7104401400400002000080048C9
:1007C000580400200044014010B5FFF77BFFFFF7FD
:1007D0005BFFFFF751FF104B012199700F4A9069A1
:1007E00080239B02034393610D4A10880D4B98624E
:1007F0005288DA62DA680A43DA601A680A431A60D1
:10080000094BC52189005A58084802405A50802295
:1008100092031A6010BDC0465C0400200010024024
:10082000080000200044014000E100E0FF00FFFF5D
:100830000C4885460C480D490D4A002302E0D45867
:10084000C4500433C4188C42F9D30A4A0A4C00231A
:1008500001E013600432A242FBD300F017FA00F06B
:10086000B3F9FEE70020002000000020340400203F
:10087000F80D000834040020140E0020FEE70000EC
:1008800030B583B0434B1B78002B25D0414B002261
:100890001A70414B1B78072B20D03F4B1B7801224D
:1008A0009A403E4909780A4200D16CE03C498A6985
:1008B000022002438A61384A591E1170002B02D16E
:1008C000130007221A70364A916980231B030B43D9
:1008D00093616B460822DA7103B030BD314B1B784F
:1008E000032B19D02D4B1B78FF2B36D02C4A536984
:1008F0002D490B405361294D2C4C29002000FFF756
:1009000085FC28702A4BE35C002BC6D0244A9369EF
:1009100004210B439361C0E7204B1B78C82B08D000
:100920001E4BC8221A701E4A936904210B4393611F
:10093000B3E71B4B99698022D2020A439A611D4991
:100940000A68012082430A609969802212030A43DF
:100950009A61144B00221A70BEE7114B99698022EC
:10096000D2020A439A6113490A68012082430A604D
:100970009969802212030A439A61596980225200C0
:100980000A435A61A8E70649886980229202024315
:100990008A6190E758040020290000206A040020A2
:1009A0000008004850040020FFFEFFFF6C040020F8
:1009B000040400000044014000B583B0304B1B78B4
:1009C000002B5BD02F4B1B78032B1BD06B460022D8
:1009D000DA712C4B1B78032B20D16B46C832DA71AD
:1009E000294BC73A1A709023DB055A6927490A40F8
:1009F0005A615A6969460731097849000A435A61C0
:100A0000002324E0204B1B78012BDFD11D4A00235B
:100A100013701D4A13701A4A13702FE01C486B465E
:100A2000D91DFFF7F3FB013005D01A4A53691A4963
:100A30000B405361D7E7124B00221A70154A5169D7
:100A400080235B000B43536118E00133DBB2072BBB
:100A5000FBD9104A91698023DB000B43936100238B
:100A600001E00133DBB23F2BFBD90A4A91698023B5
:100A7000DB040B439361024B00221A7003B000BDEC
:100A80005A040020500400206904002001FEFFFFEA
:100A90006C04002000080048FFFEFFFF10B51E4B4D
:100AA0001B78002B21D01D4B1A69022313405A1EBC
:100AB00093411B48027893401A4C21781943C9B2DC
:100AC0002170154B00241C70531E0370002A0CD19A
:100AD00007320270C82909D1104A516980239B004E
:100AE0004B4053610F4B00221A7010BD0E48FFF7A8
:100AF00083FB0E4A1368013313608022D2009342B5
:100B0000F0D10A4B00221A60044A516980235B002D
:100B10004B405361E6E7C0465904002000080048F6
:100B200028000020680400207408002064040020CD
:100B300010B51E4B1B78002B36D09023DB051969AE
:100B40004908C9B2C82910D1194A516980239B00AC
:100B50004B405361154B00221A70154A916980234E
:100B60001B010B439361002316E01248FFF744FB7F
:100B7000114A1368013313608022D2009342E9D1F5
:100B80000D4B00221A600A4A516980235B004B40DA
:100B90005361DFE70133DBB23F2BFBD9044A916994
:100BA00080231B050B43936110BDC0465B040020EE
:100BB00000080048740800206004002010B5FFF70A
:100BC00003FEFFF737FD10BD10B52948FFF706FB00
:100BD000FFF7F4FF39E02748FFF700FB002406E0A9
:100BE000254B195D2348FFF707FB0134A4B280238E
:100BF000DB009C42F4D3214B1B78002B06D0204B0A
:100C000001221A701F4B00221A7022E01E4A13683C
:100C100001210B431360F5E7184B1B78002B06D01E
:100C2000174B01221A70174B03221A7015E0164A4F
:100C3000136801210B431360F5E7FFF72FFF0F4BFC
:100C40001B78002B10D0FFF7B7FE0E4B1B78012B43
:100C5000C1D00C4B1B78022BDED0084B5B78002BED
:100C6000EBD0FFF765FFEAE7FFF70AFEEDE7C046C6
:100C7000740800206C0400202C0000205C0400207C
:100C80005A040020500400200044014070B50D4B70
:100C90000D4D5E1BB610AB4205D0002408CD0134CB
:100CA0009847A642FAD800F095F8084B084D5E1B0D
:100CB000B610AB4205D0002408CD01349847A642B7
:100CC000FAD870BDEC0D0008EC0D0008F40D00081A
:100CD000EC0D00087047C0467047C046034B10B586
:100CE000002B02D0024800F005F810BD0000000003
:100CF000050D000810B5010000230022002000F0BF
:100D000015F810BD70B5074C074D641BA41005D035
:100D1000013CA300EB589847002CF9D100F060F893
:100D200070BDC046F80D0008F40D0008F0B5D646B9
:100D30004F4646469846244BC0B5060018689A466A
:100D40000F009146FFF7C6FF204B1D68002D32D0E3
:100D500053466C6818681F2C30DC002E0CD1631CC5
:100D60000234A4006B606751FFF7B6FF0020E0BCBF
:100D7000BA46B146A846F0BD49468822A300EB1802
:100D80009950C42149008C46AC446146873AA24040
:100D90000968914611436246116084214246490028
:100DA0005A50022EDBD129004A468D31FF310B68A3
:100DB00013430B60D3E7064D1D60C9E7FFF78CFFB7
:100DC00001204042D3E7C04630040020800C0020C0
:100DD000840C0020F8B5C046F8BC08BC9E4670479D
:0C0DE000F8B5C046F8BC08BC9E46704741
:080DEC00DD0C000835010008D0
:040DF40009010008E9
:100DF8000101010101000000290363009F00630055
:100E08004F00630027006300170063000F006300B2
:100E18000A006300060063000707000051574257A5
:100E2800594853415A4948524D444F4943454F4701
:100E3800415A4C4B5446525055584E58564A5443B2
:100E48004B4C504244554E4553464A595147494CDC
:100E58004457515747434B4B5446464651574257C0
:100E6800594853415A4948524D444F4943454F47C1
:100E7800415A4C4B5446525055584E58564A544372
:100E88004B4C504244554E4553464A595147494C9C
:100E98004457515747434B4B544646465157425780
:100EA800594853415A4948524D444F4943454F4781
:100EB800415A4C4B5446525055584E58564A544332
:100EC8004B4C504244554E4553464A595147494C5C
:100ED8004457515747434B4B544646465157425740
:100EE800594853415A4948524D444F4943454F4741
:100EF800415A4C4B5446525055584E58564A5443F2
:100F08004B4C504244554E4553464A595147494C1B
:100F18004457515747434B4B5446464651574257FF
:100F2800594853415A4948524D444F4943454F4700
:100F3800415A4C4B5446525055584E58564A5443B1
:100F48004B4C504244554E4553464A595147494CDB
:100F58004457515747434B4B5446464651574257BF
:100F6800594853415A4948524D444F4943454F47C0
:100F7800415A4C4B5446525055584E58564A544371
:100F88004B4C504244554E4553464A595147494C9B
:100F98004457515747434B4B54464646515742577F
:100FA800594853415A4948524D444F4943454F4780
:100FB800415A4C4B5446525055584E58564A544331
:100FC8004B4C504244554E4553464A595147494C5B
:100FD8004457515747434B4B54464646515742573F
:100FE800594853415A4948524D444F4943454F4740
:100FF800415A4C4B5446525055584E58564A5443F1
:101008004B4C504244554E4553464A595147494C1A
:101018004457515747434B4B5446464651574257FE
:10102800594853415A4948524D444F4943454F47FF
:10103800415A4C4B5446525055584E58564A5443B0
:101048004B4C504244554E4553464A595147494CDA
:101058004457515747434B4B5446464651574257BE
:10106800594853415A4948524D444F4943454F47BF
:10107800415A4C4B5446525055584E58564A544370
:101088004B4C504244554E4553464A595147494C9A
:101098004457515747434B4B54464646515742577E
:1010A800594853415A4948524D444F4943454F477F
:1010B800415A4C4B5446525055584E58564A544330
:1010C8004B4C504244554E4553464A595147494C5A
:1010D8004457515747434B4B54464646515742573E
:1010E800594853415A4948524D444F4943454F473F
:1010F800415A4C4B5446525055584E58564A5443F0
:101108004B4C504244554E4553464A595147494C19
:101118004457515747434B4B5446464651574257FD
:10112800594853415A4948524D444F4943454F47FE
:10113800415A4C4B5446525055584E58564A5443AF
:101148004B4C504244554E4553464A595147494CD9
:101158004457515747434B4B5446464651574257BD
:10116800594853415A4948524D444F4943454F47BE
:10117800415A4C4B5446525055584E58564A54436F
:101188004B4C504244554E4553464A595147494C99
:101198004457515747434B4B54464646515742577D
:1011A800594853415A4948524D444F4943454F477E
:1011B800415A4C4B5446525055584E58564A54432F
:1011C8004B4C504244554E4553464A595147494C59
:1011D8004457515747434B4B54464646515742573D
:1011E800594853415A4948524D444F4943454F473E
:1011F800415A4C4B5446525055584E58564A5443EF
:101208004B4C504244554E4553464A595147494C18
:101218004457515747434B4B54464646000000003D
:041228007C0C00201A
:0400000508000831B6
:00000001FF
