:020000040800F2
:100000000020002091070008DD070008DD07000838
:1000100000000000000000000000000000000000E0
:10002000000000000000000000000000DD070008E4
:100030000000000000000000DD070008DD070008E8
:10004000DD070008DD070008DD070008DD07000800
:10005000DD07000805030008DD070008DD070008CC
:10006000DD070008DD070008DD050008DD070008E2
:10007000DD070008DD070008DD0700089103000820
:10008000F5030008DD07000800000000590400081F
:10009000A1040008DD070008DD070008DD070008EF
:1000A000DD070008DD070008DD070008DD070008A0
:1000B000DD07000800000000DD0700080000000068
:1000C0000448054B10B5834203D0044B002B00D0ED
:1000D000984710BD08000020080000200000000024
:1000E00006480749091A8B10C90FC91810B54910DD
:1000F00003D0044B002B00D0984710BD080000200F
:10010000080000200000000010B5074C2378002BE9
:1001100009D1FFF7D5FF054B002B02D0044800E0C2
:1001200000BF0123237010BD080000200000000064
:1001300050090008054B10B5002B03D004490548B1
:1001400000E000BFFFF7CCFF10BDC046000000007C
:100150000C000020500900080E49CB69012213430E
:10016000CB610D4B0D490B600D490B600D490B68C0
:1001700013430B600C390B6813430B600A4AC3210D
:10018000890053581B021B0A535080231B02136023
:100190007047C04600100240830300002800004062
:1001A0002C0000400C00004000E100E00F4AD36941
:1001B00002210B43D3610E4B0E4A1A600E4B0F4ABD
:1001C0001A600F4A136801390B4313600D4A136814
:1001D0000B4313600C4BC42189005A58FF20824303
:1001E0005A50802252021A607047C04600100240E6
:1001F000280400403F0600002C0400408713000044
:100200000C0400400004004000E100E00F4AD16906
:1002100080235B000B43D3610D4B0E4A1A600E4BDB
:100220000E4A1A600E4A136801210B4313600D4AEF
:1002300013680B4313600C4AC421890053581B02F6
:100240001B0A535080231B031360704700100240A9
:10025000282000401F0300002C20004087130000CE
:100260000C2000400020004000E100E00F4A9169AE
:1002700080235B020B4393610D4B0E4A1A600E4BB9
:100280000E4A1A600E4A136801210B4313600D4A8F
:1002900013680B4313600C4BC52189005A58FF208B
:1002A00082435A50802252031A6070470010024065
:1002B000284001403F1F00002C40014087130000F0
:1002C0000C4001400040014000E100E00A4B1A6888
:1002D00001210A431A609A680A439A60DA680A435D
:1002E000DA60064B20221A60C12189005A5804485E
:1002F00002405A507047C0460004014000E100E04F
:10030000FF00FFFF1E4B5B69DB0738D51C4A5369B2
:1003100001210B4353611B4B9B78002B2FD1902362
:10032000DB051B69DB0709D5164B00225A701B78C9
:10033000002B03D0134AD3780133D3709023DB050D
:100340001B69DB070DD40F4B01225A701B78002B61
:1003500007D10D4A136801218B431360094B00221A
:10036000DA70084B01219970084A506980235B00BC
:10037000034353618022D20513680B431360704717
:10038000000401402800002000040040000800484C
:10039000124B1B68DB0720D5104A136801214B4024
:1003A00013600F4B1B78002B10D10E4B00229A705C
:1003B0000D494A690D4802404A615B78002B0CD117
:1003C0000B4A136801210B43136006E0103A1368CF
:1003D0008B431360024B00221A70704710000040DC
:1003E000000000202800002000080048FFFEFFFF5A
:1003F00000040040124B1B68DB0717D5104A136836
:1004000001214B4013600F4B5B78002B0FD10E4A3C
:10041000012313700D490A689A430A600C490A685F
:100420001A430A600B490A6813430B607047074A76
:1004300013688B431360034B00225A70F6E7C046E3
:1004400010040040000000202800002000040040AC
:1004500000200040004001400D4B1B68DB070ED51B
:100460000B4A136801214B4013600A4B9B78002B09
:1004700006D1094A516980239B004B405361704764
:10048000064A13688B431360024B00229A70F6E70A
:10049000102000400000002000080048002000401C
:1004A000164B1B68DB071BD5144A136801214B4010
:1004B0001360134BDB78002B13D1124BDB78002B2E
:1004C00017D1114B01221A700E4B0022DA700F4A1D
:1004D000136801218B4313600D4A13688B4313602B
:1004E00070470A4A13688B431360054B0022DA7089
:1004F000F6E7054B00221A70E6E7C04610400140BF
:1005000000000020280000202400002000400140BE
:100510000020004010B5FFF7D9FEFFF71DFEFFF7E2
:1005200045FEFFF773FEFFF7A1FE10BD0B4B1A68E7
:1005300080210A431A601A6870390A431A601A68DF
:1005400010310A431A608022D2005A60044A9A602D
:10055000D8601A681E390A431A6070471C000240AE
:10056000283801400B4B1A6880210A431A601A6828
:1005700070398A431A601A6810310A431A6080225F
:10058000D2005A60044A9A60D8601A681E390A4339
:100590001A60704730000240243801400B4BC220E3
:1005A000800019580A4A11408022D2030A431A5087
:1005B0008022D2001A60074A136801210B4313609E
:1005C000054A13680B4313607047C04600E100E022
:1005D000FFFF00FF1C00024030000240094B1B6877
:1005E0009B0604D5074A536820210B435360054BF3
:1005F0001B689B0505D5034A516880239B000B436C
:10060000536070470000024010B50C00064A536961
:1006100001210B435361FFF789FF2000FFF7A2FF81
:10062000FFF7BCFF10BDC046001002409023DB0561
:100630001968A02292030A431A60596A882252005C
:100640000A435A6270470000074B1A680C210A439C
:100650001A60064ADA609A68B4310A439A601A68E6
:10066000BF390A431A607047003801404103000057
:1006700010B5054A91698023DB010B439361FFF7B5
:10068000D5FFFFF7E1FF10BD0010024030B5144A5E
:100690009369012003439361124B1A69102422438A
:1006A0001A61196980225200114319611D69802164
:1006B0004901294319615969014359619D680A49F2
:1006C00029439960DD6809492943D96019690143C3
:1006D000196159692143596159690A435A6130BD09
:1006E0000010024000000140101100001111000034
:1006F000154B5969802292020A435A615969802236
:10070000D202114359619023DB0518680F49014358
:10071000196019680A431A601968802252030A4353
:100720001A600B4B1A6804210A431A601A680C31CC
:100730000A431A601A6830310A431A601968802225
:1007400052000A431A6070470010024054550100DD
:1007500000080048084A516980231B030B4353617A
:10076000064B1968802252020A431A6019688022D7
:10077000D2020A431A607047001002400008004885
:1007800010B5FFF7E7FFFFF7B3FFFFF77FFF10BDDF
:100790000C4885460C480D490D4A002302E0D45808
:1007A000C4500433C4188C42F9D30A4A0A4C0023BB
:1007B00001E013600432A242FBD300F025F800F000
:1007C0001FF8FEE7002000200000002008000020A5
:1007D0007409000808000020D4090020FEE700008A
:1007E00010B5FFF7CDFFFFF743FF03490348FFF7BD
:1007F0000BFFFFF78FFE10BD2C00002034040020FB
:1008000010B5FFF7EDFFFEE770B50D4B0D4D5E1B0C
:10081000B610AB4205D0002408CD01349847A6425B
:10082000FAD800F095F8084B084D5E1BB610AB42A5
:1008300005D0002408CD01349847A642FAD870BDEF
:1008400068090008680900087009000868090008BC
:100850007047C0467047C046034B10B5002B02D00E
:10086000024800F005F810BD0000000081080008F3
:1008700010B5010000230022002000F015F810BD83
:1008800070B5074C074D641BA41005D0013CA300B4
:10089000EB589847002CF9D100F060F870BDC046C5
:1008A0007409000870090008F0B5D6464F46464660
:1008B0009846244BC0B5060018689A460F0091462A
:1008C000FFF7C6FF204B1D68002D32D053466C68E1
:1008D00018681F2C30DC002E0CD1631C0234A400DD
:1008E0006B606751FFF7B6FF0020E0BCBA46B14627
:1008F000A846F0BD49468822A300EB189950C421B0
:1009000049008C46AC446146873AA240096891464A
:100910001143624611608421424649005A50022E1A
:10092000DBD129004A468D31FF310B6813430B6040
:10093000D3E7064D1D60C9E7FFF78CFF0120404259
:10094000D3E7C046040000204008002044080020EF
:10095000F8B5C046F8BC08BC9E467047F8B5C0461E
:08096000F8BC08BC9E4670477C
:080968005908000835010008E0
:040970000901000871
:08097400010101013C08002013
:040000050800079157
:00000001FF
