:020000040800F2
:100000000020002059010008A5010008A5010008F2
:1000100000000000000000000000000000000000E0
:10002000000000000000000000000000A501000822
:100030000000000000000000A5010008A501000864
:10004000A5010008A5010008A5010008A5010008F8
:10005000A5010008A9010008A5010008A5010008E4
:10006000A5010008A5010008A5010008A5010008D8
:10007000A5010008A5010008A5010008510200081B
:10008000E9010008A501000800000000A501000822
:10009000A5010008A5010008A5010008A5010008A8
:1000A000A5010008A5010008A5010008A501000898
:1000B000A501000800000000A501000800000000E4
:1000C0000448054B10B5834203D0044B002B00D0ED
:1000D000984710BD0400002004000020000000002C
:1000E00006480749091A8B10C90FC91810B54910DD
:1000F00003D0044B002B00D0984710BD0400002013
:10010000040000200000000010B5074C2378002BED
:1001100009D1FFF7D5FF054B002B02D0044800E0C2
:1001200000BF0123237010BD040000200000000068
:100130000C050008054B10B5002B03D004490548F9
:1001400000E000BFFFF7CCFF10BDC046000000007C
:10015000080000200C0500080C4885460C480D4995
:100160000D4A002302E0D458C4500433C4188C4212
:10017000F9D30A4A0A4C002301E013600432A24278
:10018000FBD300F01FF900F019F9FEE70020002072
:1001900000000020040000203005000804000020BA
:1001A000C0010020FEE700000C4B5B69DB0713D5A4
:1001B0000A4A536901210B435361094B1B78012BF8
:1001C0000AD09368DB0703D5064A1368013313602E
:1001D0008023DB0500225A627047C04600040140BC
:1001E0002100002024000020144B1B69DB0720D5D0
:1001F000124A136901214B401361114B1B78002BEC
:1002000017D0104B1B68002B14D00F4B1B78002B02
:1002100003D00C4A1368013B13600C4A51698023D8
:100220005B004B405361084A137801214B40DBB21D
:1002300013707047024B00221A70FAE70004004066
:100240002100002024000020200000200008004899
:100250008023DB051B69DB0707D58021C9050B69F6
:10026000012253400B61014B1A707047210000209E
:100270000D4A5169A0231B030B4353619023DB05F7
:100280001A6803218A431A60DA6801390A43DA607E
:10029000064B1A6806490A401A6019688022520201
:1002A0000A431A607047C046001002400008004828
:1002B000FFFFFCFF0E4AD36901210B43D36180236A
:1002C000DB050C4A9A620C4ADA62DA680A43DA60A1
:1002D0001A680A431A600949802212020A60C32080
:1002E00080000A581202120A13430B507047C0468E
:1002F000001002403F1F00008713000000E100E0F3
:100300000E4AD36902210B43D3610D4B0D4A9A6209
:100310000D4ADA62DA6801390A43DA601A680A4378
:100320001A600A4A80235B021360C4218900535873
:10033000FF208343BF3803435350704700100240EF
:10034000000400403F0600008713000000E100E0C9
:1003500010498B69012213438B610F498B680F2071
:1003600083438B600D4B19681143196099681143E1
:100370009960D9680A43DA60094B20221A60C120CB
:1003800080001958074A11408022D2010A431A50AE
:100390007047C046001002400000014000040140C8
:1003A00000E100E0FF00FFFF10B5FFF761FFFFF77E
:1003B00081FFFFF7A5FFFFF7CBFFFEE710B5FFF7C3
:1003C000F3FF000070B50D4B0D4D5E1BB610AB4238
:1003D00005D0002408CD01349847A642FAD800F091
:1003E00095F8084B084D5E1BB610AB4205D00024B3
:1003F00008CD01349847A642FAD870BD24050008FC
:10040000240500082C050008240500087047C04694
:100410007047C046034B10B5002B02D0024800F0D5
:1004200005F810BD000000003D04000810B50100F3
:1004300000230022002000F015F810BD70B5074C15
:10044000074D641BA41005D0013CA300EB5898474E
:10045000002CF9D100F060F870BDC04630050008EE
:100460002C050008F0B5D6464F4646469846244B24
:10047000C0B5060018689A460F009146FFF7C6FF00
:10048000204B1D68002D32D053466C6818681F2C15
:1004900030DC002E0CD1631C0234A4006B60675169
:1004A000FFF7B6FF0020E0BCBA46B146A846F0BD53
:1004B00049468822A300EB189950C42149008C4674
:1004C000AC446146873AA2400968914611436246AE
:1004D00011608421424649005A50022EDBD1290086
:1004E0004A468D31FF310B6813430B60D3E7064D4D
:1004F0001D60C9E7FFF78CFF01204042D3E7C046EB
:10050000000000202C00002030000020F8B5C0467C
:10051000F8BC08BC9E467047F8B5C046F8BC08BC9D
:040520009E4670473C
:08052400150400083501000870
:04052C0009010008B9
:04053000280000207F
:040000050800015995
:00000001FF
