:020000040800F2
:1000000000200020150800086108000861080008A9
:1000100000000000000000000000000000000000E0
:10002000000000000000000000000000610800085F
:1000300000000000000000006108000861080008DE
:1000400061080008610800086108000861080008EC
:1000500061080008FD030008610800082D0700087A
:1000600061080008610800084D06000861080008E2
:100070006108000861080008610800088904000898
:10008000FD04000861080008000000006105000888
:10009000A905000861080008610800086108000857
:1000A000610800086108000861080008610800088C
:1000B000610800080000000061080008000000005E
:1000C0000448054B10B5834203D0044B002B00D0ED
:1000D000984710BD180400201804002000000000FC
:1000E00006480749091A8B10C90FC91810B54910DD
:1000F00003D0044B002B00D0984710BD18040020FB
:10010000180400200000000010B5074C2378002BD5
:1001100009D1FFF7D5FF054B002B02D0044800E0C2
:1001200000BF0123237010BD180400200000000050
:10013000900B0008054B10B5002B03D0044905486F
:1001400000E000BFFFF7CCFF10BDC046000000007C
:100150001C040020900B0008124BC35C002B09D03C
:10016000114BC35A01339BB28022D200934215D067
:100170000D4A83528022D200835A01339BB29342AC
:100180000ED08022D2008352835A074A825A9B1A89
:100190005A425341DBB2034A835470470023E7E7D6
:1001A0000023EEE70404000002040000094BC35CD6
:1001B000002B0AD18023DB00C25A92B2064BC35AED
:1001C0009BB29A4204D0002000E00020C0B27047E9
:1001D0000120FBE704040000020400000023802249
:1001E000D2008352024A83520022024BC25470470B
:1001F000020400000404000010B58023DB00C35A91
:100200009BB2C154FFF7A8FF10BD000070B50400F9
:100210000D00FFF7CBFF002813D10B4AA35A9BB266
:10022000E35C2B70A35A01339BB2023A934206D08F
:10023000054AA352054B0022E254012070BD002361
:10024000F6E701204042F9E7020400000404000040
:100250000E49CB6901221343CB610D4B0D490B6055
:100260000D490B600D490B6813430B600C390B688B
:1002700013430B600A4AC321890053581B021B0A0F
:10028000535080231B0213607047C0460010024089
:1002900083030000280000402C0000400C000040B8
:1002A00000E100E00F4AD36902210B43D3610E4BFA
:1002B0000E4A1A600E4B0F4A1A600F4A1368013932
:1002C0000B4313600D4A13680B4313600C4BC4219E
:1002D00089005A58FF2082435A50802252021A60E5
:1002E0007047C04600100240280400403F0600004E
:1002F0002C040040871300000C0400400004004060
:1003000000E100E00F4AD16980235B000B43D36119
:100310000D4B0E4A1A600E4B0E4A1A600E4A1368B5
:1003200001210B4313600D4A13680B4313600C4A01
:10033000C421890053581B021B0A535080231B03FE
:100340001360704700100240282000401F03000087
:100350002C200040871300000C20004000200040AB
:1003600000E100E00F4A916980235B020B43936137
:100370000D4B0E4A1A600E4B0E4A1A600E4A136855
:1003800001210B4313600D4A13680B4313600C4BA0
:10039000C52189005A58FF2082435A5080225203B7
:1003A0001A60704700100240284001403F1F0000C3
:1003B0002C400140871300000C40014000400140E8
:1003C00000E100E00A4B1A6801210A431A609A68AA
:1003D0000A439A60DA680A43DA60064B20221A6000
:1003E000C12189005A58044802405A507047C046FB
:1003F0000004014000E100E0FF00FFFF1E4B5B69CD
:10040000DB0738D51C4A536901210B4353611B4B51
:100410009B78002B2FD19023DB051B69DB0709D5C7
:10042000164B00225A701B78002B03D0134AD37846
:100430000133D3709023DB051B69DB070DD40F4B11
:1004400001225A701B78002B07D10D4A1368012135
:100450008B431360094B0022DA70084B012199701D
:10046000084A506980235B00034353618022D20510
:1004700013680B43136070470004014038040020E8
:100480000004004000080048164B1B68DB0727D516
:10049000144A136801214B401360134B1B78002B47
:1004A00017D1124B00229A7011494A691148024033
:1004B0004A618021C9050A680330FF3082430A601F
:1004C0005B78002B0CD10C4A136801210B4313609D
:1004D00006E0103A13688B431360034B00221A7036
:1004E0007047C04610000040000000203804002083
:1004F00000080048FFFEFFFF00040040124B1B688D
:10050000DB0717D5104A136801214B4013600F4BCE
:100510005B78002B0FD10E4A012313700D490A6836
:100520009A430A600C490A681A430A600B490A6830
:1005300013430B607047074A13688B431360034BE8
:1005400000225A70F6E7C046100400400000002068
:10055000380400200004004000200040004001401A
:100560000D4B1B68DB070ED50B4A136801214B406E
:1005700013600A4B9B78002B06D1094A51698023EE
:100580009B004B4053617047064A13688B431360CE
:10059000024B00229A70F6E7102000400000002075
:1005A00000080048002000401C4B1B68DB072CD5CE
:1005B0001A4A136801214B401360194BDB78002B5A
:1005C0000BD1184BDB78012B20D0022B22D0002B33
:1005D0000BD0154B00221A700AE0144A13688B43A3
:1005E00013600F4B0022DA700FE00F4B00221A70DD
:1005F0000C4B0022DA701A700C4A136801218B43ED
:1006000013600B4A13688B4313607047064B01223B
:100610001A70EDE7044B02221A70E9E7104001401E
:100620000000002038040020340400200040014075
:100630000020004010B5FFF7C5FEFFF709FEFFF7E9
:1006400031FEFFF75FFEFFF78DFE10BD094B1B6803
:100650009B0604D5074A536820210B435360054B82
:100660001B689B0505D5034A516880239B000B43FB
:1006700053607047000002400C4A936901210B430C
:1006800093610B4B98680B4A02439A60D8680A4AF8
:100690000243DA601A690A431A615A690A435A61C5
:1006A0005A690F310A435A617047C0460010024030
:1006B0000000014010110000111100000D4B59699C
:1006C000802292020A435A6159698022D2020A4367
:1006D0005A619023DB051968074A0A431A601968B2
:1006E0008022D2030A431A60044A136804210B4390
:1006F0001360704700100240545501000008004884
:10070000084A516980231B030B435361064B196848
:10071000802252020A431A6019688022D2020A43D8
:100720001A6070470010024000080048164B5B78C2
:10073000002B11D0154B5B69DB040DD5134A5169B1
:1007400080235B010B435361114B01221A70114A44
:10075000536902218B4353610B4B1B78002B12D042
:100760000A4B5B699B040ED5084A516980239B01A3
:100770000B435361084B01221A709022D205536932
:1007800006490B40536170474004002000040140BB
:100790003D040020000800483C040020FFF7FFFF54
:1007A00070B5FFF7ADFFFFF789FFFFF765FF164A4A
:1007B00001255570154B18688021490108431860C0
:1007C000986801439960124880210160C126B600F3
:1007D00081590902090A8024E405214381511570D9
:1007E000186880218901084318609868014399605E
:1007F0005378002B07D1064A8033136093591B02AC
:100800001B0A2343935170BD4004002000040140A3
:1008100000E100E00C4885460C480D490D4A0023D4
:1008200002E0D458C4500433C4188C42F9D30A4AA5
:100830000A4C002301E013600432A242FBD300F013
:1008400003F900F0BBF8FEE70020002000000020C4
:1008500018040020B40B000818040020F80D002034
:10086000FEE7000000B583B0244B1B78002B38D086
:100870006B460022DA71224B1B78032B10D1214AE0
:1008800013782149C85C6946C8710133DBB2137023
:10089000072B11D11A4B00221A701A4B1A700BE059
:1008A0001A486B46D91DFFF7B1FC01301BD0184A1E
:1008B000536918490B4053619023DB055969802225
:1008C00012010A435A615A6913490A405A615A6926
:1008D00069460731097849000A435A61074B0022EB
:1008E0001A7003B000BD054B00221A70084A516906
:1008F00080235B000B435361F3E7C0463C040020B8
:10090000340400204C040020080000205004002083
:1009100000080048FFFEFFFF01FEFFFF10B51C4B63
:100920001B78002B00D110BD1A4B1C696408E1B282
:100930001948FFF761FCFF222240184B1968521832
:100940001A6017490B780133DBB20B70154909782F
:100950008B4208D00E4B00221A70134A53690221B1
:100960000B435361DFE70E4B002119700F4B1B88BF
:100970009A4203D0094B00221A60EBE70A4A5169F8
:1009800080239B000B435361014B00221A70CAE77E
:100990003D040020000400485808002048040020BE
:1009A0004404002004000020000800480600002045
:1009B00010B5FFF7F5FEFFF73DFE10BD10B51C4862
:1009C000FFF70CFC1B48FFF709FC002406E01A4B5C
:1009D000195D1848FFF710FC0134A4B28023DB0036
:1009E0009C42F4D3FFF7E4FF0EE0144B01221A708F
:1009F000134B00221A7007E0124B5B78002B10D1CA
:100A0000104B1B78002B0FD10D4B1B78012BECD01A
:100A1000022BF1D1094B01221A70094B02321A70D4
:100A2000EAE7FFF77BFFEBE7FFF71CFFECE7C046C9
:100A30005808002050040020100000203C04002032
:100A4000340400204004002070B50D4B0D4D5E1B9A
:100A5000B610AB4205D0002408CD01349847A64219
:100A6000FAD800F095F8084B084D5E1BB610AB4263
:100A700005D0002408CD01349847A642FAD870BDAD
:100A8000A80B0008A80B0008B00B0008A80B000872
:100A90007047C0467047C046034B10B5002B02D0CC
:100AA000024800F005F810BD00000000C10A00086F
:100AB00010B5010000230022002000F015F810BD41
:100AC00070B5074C074D641BA41005D0013CA30072
:100AD000EB589847002CF9D100F060F870BDC04683
:100AE000B40B0008B00B0008F0B5D6464F4646469A
:100AF0009846244BC0B5060018689A460F009146E8
:100B0000FFF7C6FF204B1D68002D32D053466C689E
:100B100018681F2C30DC002E0CD1631C0234A4009A
:100B20006B606751FFF7B6FF0020E0BCBA46B146E4
:100B3000A846F0BD49468822A300EB189950C4216D
:100B400049008C46AC446146873AA2400968914608
:100B50001143624611608421424649005A50022ED8
:100B6000DBD129004A468D31FF310B6813430B60FE
:100B7000D3E7064D1D60C9E7FFF78CFF0120404217
:100B8000D3E7C04614040020640C0020680C002049
:100B9000F8B5C046F8BC08BC9E467047F8B5C046DC
:080BA000F8BC08BC9E4670473A
:080BA800990A0008350100085C
:040BB000090100082F
:100BB400010101010700FF01434F4D4D414E440027
:100BC40051574257594853415A4948524D444F4945
:100BD40043454F47415A4C4B5446525055584E5832
:100BE400564A54434B4C504244554E4553464A5939
:100BF4005147494C4457515747434B4B544646463B
:100C040051574257594853415A4948524D444F4904
:100C140043454F47415A4C4B5446525055584E58F1
:100C2400564A54434B4C504244554E4553464A59F8
:100C34005147494C4457515747434B4B54464646FA
:100C440051574257594853415A4948524D444F49C4
:100C540043454F47415A4C4B5446525055584E58B1
:100C6400564A54434B4C504244554E4553464A59B8
:100C74005147494C4457515747434B4B54464646BA
:100C840051574257594853415A4948524D444F4984
:100C940043454F47415A4C4B5446525055584E5871
:100CA400564A54434B4C504244554E4553464A5978
:100CB4005147494C4457515747434B4B544646467A
:100CC40051574257594853415A4948524D444F4944
:100CD40043454F47415A4C4B5446525055584E5831
:100CE400564A54434B4C504244554E4553464A5938
:100CF4005147494C4457515747434B4B544646463A
:100D040051574257594853415A4948524D444F4903
:100D140043454F47415A4C4B5446525055584E58F0
:100D2400564A54434B4C504244554E4553464A59F7
:100D34005147494C4457515747434B4B54464646F9
:100D440051574257594853415A4948524D444F49C3
:100D540043454F47415A4C4B5446525055584E58B0
:100D6400564A54434B4C504244554E4553464A59B7
:100D74005147494C4457515747434B4B54464646B9
:100D840051574257594853415A4948524D444F4983
:100D940043454F47415A4C4B5446525055584E5870
:100DA400564A54434B4C504244554E4553464A5977
:100DB4005147494C4457515747434B4B5446464679
:100DC40051574257594853415A4948524D444F4943
:100DD40043454F47415A4C4B5446525055584E5830
:100DE400564A54434B4C504244554E4553464A5937
:100DF4005147494C4457515747434B4B5446464639
:100E040051574257594853415A4948524D444F4902
:100E140043454F47415A4C4B5446525055584E58EF
:100E2400564A54434B4C504244554E4553464A59F6
:100E34005147494C4457515747434B4B54464646F8
:100E440051574257594853415A4948524D444F49C2
:100E540043454F47415A4C4B434F4D4D414E4458E7
:100E6400564A54434B4C504244554E4553464A59B6
:100E74005147494C4457515747434B4B54464646B8
:100E840051574257594853415A4948524D444F4982
:100E940043454F47415A4C4B5446525055584E586F
:100EA400564A54434B4C504244554E4553464A5976
:100EB4005147494C4457515747434B4B5446464678
:100EC40051574257594853415A4948524D444F4942
:100ED40043454F47415A4C4B5446525055584E582F
:100EE400564A54434B4C504244554E4553464A5936
:100EF4005147494C4457515747434B4B5446464638
:100F040051574257594853415A4948524D444F4901
:100F140043454F47415A4C4B5446525055584E58EE
:100F2400564A54434B4C504244554E4553464A59F5
:100F34005147494C4457515747434B4B54464646F7
:100F440051574257594853415A4948524D444F49C1
:100F540043454F47415A4C4B5446525055584E58AE
:100F6400564A54434B4C504244554E4553464A59B5
:100F74005147494C4457515747434B4B54464646B7
:100F840051574257594853415A4948524D444F4981
:100F940043454F47415A4C4B5446525055584E586E
:100FA400564A54434B4C504244554E4553464A5975
:100FB4005147494C4457515747434B4B5446464677
:080FC40000000000600C002099
:0400000508000815D2
:00000001FF
