:020000040800F2
:100000000020002045080008910800089108000819
:1000100000000000000000000000000000000000E0
:10002000000000000000000000000000910800082F
:10003000000000000000000091080008910800087E
:10004000910800089108000891080008910800082C
:1000500091080008FD030008610700080D0700086B
:1000600091080008910800084D0600089108000852
:100070009108000891080008910800088904000808
:10008000FD04000891080008000000006105000858
:10009000A9050008910700089108000891080008C8
:1000A00091080008910800089108000891080008CC
:1000B00091080008000000009108000800000000FE
:1000C0000448054B10B5834203D0044B002B00D0ED
:1000D000984710BD1004002010040020000000000C
:1000E00006480749091A8B10C90FC91810B54910DD
:1000F00003D0044B002B00D0984710BD1004002003
:10010000100400200000000010B5074C2378002BDD
:1001100009D1FFF7D5FF054B002B02D0044800E0C2
:1001200000BF0123237010BD100400200000000058
:10013000E40D0008054B10B5002B03D00449054819
:1001400000E000BFFFF7CCFF10BDC046000000007C
:1001500014040020E40D0008124BC35C002B09D0EE
:10016000114BC35A01339BB28022D200934215D067
:100170000D4A83528022D200835A01339BB29342AC
:100180000ED08022D2008352835A074A825A9B1A89
:100190005A425341DBB2034A835470470023E7E7D6
:1001A0000023EEE70404000002040000094BC35CD6
:1001B000002B0AD18023DB00C25A92B2064BC35AED
:1001C0009BB29A4204D0002000E00020C0B27047E9
:1001D0000120FBE704040000020400000023802249
:1001E000D2008352024A83520022024BC25470470B
:1001F000020400000404000010B58023DB00C35A91
:100200009BB2C154FFF7A8FF10BD000070B50400F9
:100210000D00FFF7CBFF002813D10B4AA35A9BB266
:10022000E35C2B70A35A01339BB2023A934206D08F
:10023000054AA352054B0022E254012070BD002361
:10024000F6E701204042F9E7020400000404000040
:100250000E49CB6901221343CB610D4B0D490B6055
:100260000D490B600D490B6813430B600C390B688B
:1002700013430B600A4AC321890053581B021B0A0F
:10028000535080231B0213607047C0460010024089
:1002900083030000280000402C0000400C000040B8
:1002A00000E100E00F4AD36902210B43D3610E4BFA
:1002B0000E4A1A600E4B0F4A1A600F4A1368013932
:1002C0000B4313600D4A13680B4313600C4BC4219E
:1002D00089005A58FF2082435A50802252021A60E5
:1002E0007047C04600100240280400403F0600004E
:1002F0002C040040871300000C0400400004004060
:1003000000E100E00F4AD16980235B000B43D36119
:100310000D4B0E4A1A600E4B0E4A1A600E4A1368B5
:1003200001210B4313600D4A13680B4313600C4A01
:10033000C421890053581B021B0A535080231B03FE
:100340001360704700100240282000401F03000087
:100350002C200040871300000C20004000200040AB
:1003600000E100E00F4A916980235B020B43936137
:100370000D4B0E4A1A600E4B0E4A1A600E4A136855
:1003800001210B4313600D4A13680B4313600C4BA0
:10039000C52189005A58FF2082435A5080225203B7
:1003A0001A60704700100240284001403F1F0000C3
:1003B0002C400140871300000C40014000400140E8
:1003C00000E100E00A4B1A6801210A431A609A68AA
:1003D0000A439A60DA680A43DA60064B20221A6000
:1003E000C12189005A58044802405A507047C046FB
:1003F0000004014000E100E0FF00FFFF1E4B5B69CD
:10040000DB0738D51C4A536901210B4353611B4B51
:100410009B78002B2FD19023DB051B69DB0709D5C7
:10042000164B00225A701B78002B03D0134AD37846
:100430000133D3709023DB051B69DB070DD40F4B11
:1004400001225A701B78002B07D10D4A1368012135
:100450008B431360094B0022DA70084B012199701D
:10046000084A506980235B00034353618022D20510
:1004700013680B43136070470004014030040020F0
:100480000004004000080048164B1B68DB0727D516
:10049000144A136801214B401360134B1B78002B47
:1004A00017D1124B00229A7011494A691148024033
:1004B0004A618021C9050A680330FF3082430A601F
:1004C0005B78002B0CD10C4A136801210B4313609D
:1004D00006E0103A13688B431360034B00221A7036
:1004E0007047C0461000004000000020300400208B
:1004F00000080048FFFEFFFF00040040124B1B688D
:10050000DB0717D5104A136801214B4013600F4BCE
:100510005B78002B0FD10E4A012313700D490A6836
:100520009A430A600C490A681A430A600B490A6830
:1005300013430B607047074A13688B431360034BE8
:1005400000225A70F6E7C046100400400000002068
:100550003004002000040040002000400040014022
:100560000D4B1B68DB070ED50B4A136801214B406E
:1005700013600A4B9B78002B06D1094A51698023EE
:100580009B004B4053617047064A13688B431360CE
:10059000024B00229A70F6E7102000400000002075
:1005A00000080048002000401C4B1B68DB072CD5CE
:1005B0001A4A136801214B401360194BDB78002B5A
:1005C0000BD1184BDB78012B20D0022B22D0002B33
:1005D0000BD0154B00221A700AE0144A13688B43A3
:1005E00013600F4B0022DA700FE00F4B00221A70DD
:1005F0000C4B0022DA701A700C4A136801218B43ED
:1006000013600B4A13688B4313607047064B01223B
:100610001A70EDE7044B02221A70E9E7104001401E
:1006200000000020300400202C0400200040014085
:100630000020004010B5FFF7C5FEFFF709FEFFF7E9
:1006400031FEFFF75FFEFFF78DFE10BD094B1B6803
:100650009B0604D5074A536820210B435360054B82
:100660001B689B0505D5034A516880239B000B43FB
:100670005360704700000240084A936901210B4310
:100680009361074B9A689A609A689A609A689A6030
:100690001969802292010A431A61704700100240D2
:1006A000000001400B4B5969802292020A435A61B3
:1006B00059698022D2020A435A61074A1168074BDE
:1006C0000B4313609022D205116880235B000B431B
:1006D00013607047001002400004004854550100A8
:1006E000084A516980231B030B435361064B196869
:1006F000802252020A431A6019688022D2020A43F9
:100700001A6070470010024000080048104B5B78E8
:10071000002B0BD00F4B5B69DB0607D50D4A5369E5
:1007200010210B4353610C4B01221A70084B1B78AC
:10073000002B0BD0074B5B699B0607D5054A536915
:1007400020210B435361054B01221A707047C046AC
:100750003804002000040140370400203604002043
:10076000084BDB78002B0BD0074B5B691B0707D5C9
:10077000054A536908210B435361044B01221A7047
:100780007047C046380400200004014035040020B2
:100790000F4B1B68DB0711D50D4A136801214B4035
:1007A00013600C4B1B78002B09D19022D205936962
:1007B00008210B439361084B01221A707047074AC6
:1007C00013688B431360034B00221A70F6E7C04690
:1007D0001044014004000020340400200044014083
:1007E00070B5FFF77DFFFFF75DFFFFF745FF11488D
:1007F0000125C570104B1A6808210A431A60DA688F
:100800000A43DA600D4A38311160C1218900545819
:100810000B4E344054500570186820242043186053
:10082000D8682043D8608023136053581B021B0AEA
:10083000535070BD380400200004014000E100E086
:10084000FFFF00FF0C4885460C480D490D4A002368
:1008500002E0D458C4500433C4188C42F9D30A4A75
:100860000A4C002301E013600432A242FBD300F0E3
:1008700015FA00F0B1F9FEE700200020000000208A
:1008800010040020080E000810040020F00D0020C5
:10089000FEE7000010B5414B1B78002B29D03F4BE1
:1008A00000221A703E4B1B78072B23D03C4B1B7841
:1008B00001229A403B4909780A423ED09020C00567
:1008C0008269022422438261354A581E1070002B2F
:1008D00008D1130007221A70334B1B78032B44D125
:1008E000C82932D09022D205916980231B030B4383
:1008F000936110BD2C4B1B78032B09D1294BC832B7
:100900001A709022D205936904210B439361CDE7BD
:10091000264A536926490B4053612249254C200041
:10092000FFF774FC244BE35C002BBFD09022D20570
:10093000936904210B439361B8E79020C005846953
:100940008022920222438261BEE79022D205916901
:100950008023DB020B439361184A136801218B4308
:100960001360114B00221A70BCE71248FFF71EFCFF
:100970000028B7D09022D20591698023DB020B4377
:1009800093610E4A136801218B431360074A516932
:1009900080235B000B435361A4E7C046340400206E
:1009A00006000020460400202C0400200008004817
:1009B000FFFEFFFF48040020040400000044014043
:1009C00000B583B0304B1B78002B5BD02F4B1B78CE
:1009D000032B1AD06B460022DA712C4B1B78032BA9
:1009E0001FD16B46C832DA71294BC73A1A70294BAE
:1009F0005A6929490A405A615A6969460731097892
:100A000049000A435A61002324E0214B1B78012B43
:100A1000E0D11E4A002313701D4A13701A4A137046
:100A200030E01E486B46D91DFFF7F0FB013005D0C2
:100A30001B4A53691B490B405361D8E7124B0022F4
:100A40001A70174A516980235B000B43536119E008
:100A50000133DBB2072BFBD99022D2059369102119
:100A60000B439361002301E00133DBB23F2BFBD941
:100A70009022D205916980235B030B439361024B63
:100A800000221A7003B000BD360400202C040020A0
:100A9000450400200004004801FEFFFF4804002038
:100AA00000080048FFFEFFFF10B51E4B1B78002B0F
:100AB00022D09023DB051A69022313405A1E93416A
:100AC000194802789340194C21781943C9B2217012
:100AD000144B00241C70531E0370002A0CD10732E3
:100AE0000270C82909D1124A516980239B004B40EA
:100AF00053610E4B00221A7010BD0E48FFF77CFBAD
:100B00000D4A1368013313608022D2009342F0D162
:100B1000094B00221A60064A516980235B004B4052
:100B20005361E6E73504002005000020440400205E
:100B300000080048500800204004002010B51E4B5B
:100B40001B78002B36D01D4B19694908C9B2C8293A
:100B500010D11B4A516980239B004B405361164BB7
:100B600000221A709022D205936920210B439361D1
:100B7000002316E01348FFF73FFB134A13680133C5
:100B800013608022D2009342E9D10F4B00221A60F9
:100B90000B4A516980235B004B405361DFE701330F
:100BA000DBB23F2BFBD99022D205916980239B03B6
:100BB0000B43936110BDC046370400200004004879
:100BC00000080048500800203C04002010B5FFF742
:100BD00007FEFFF72FFD10BD10B52948FFF7FEFAFD
:100BE000FFF7F4FF39E02748FFF7F8FA002406E0A2
:100BF000254B195D2348FFF7FFFA0134A4B2802387
:100C0000DB009C42F4D3214B1B78002B06D0204BF9
:100C100001221A701F4B00221A7022E01E4A13682C
:100C200001210B431360F5E7184B1B78002B06D00E
:100C3000174B01221A70174B03221A7015E0164A3F
:100C4000136801210B431360F5E7FFF72DFF0F4BEE
:100C50001B78002B10D0FFF7B3FE0E4B1B78012B37
:100C6000C1D00C4B1B78022BDED0084B5B78002BDD
:100C7000EBD0FFF763FFEAE7FFF70CFEEDE7C046B6
:100C800050080020480400200800002038040020FC
:100C9000360400202C0400200044014070B50D4BA8
:100CA0000D4D5E1BB610AB4205D0002408CD0134BB
:100CB0009847A642FAD800F095F8084B084D5E1BFD
:100CC000B610AB4205D0002408CD01349847A642A7
:100CD000FAD870BDFC0D0008FC0D0008040E0008D9
:100CE000FC0D00087047C0467047C046034B10B566
:100CF000002B02D0024800F005F810BD00000000F3
:100D0000150D000810B5010000230022002000F09E
:100D100015F810BD70B5074C074D641BA41005D025
:100D2000013CA300EB589847002CF9D100F060F883
:100D300070BDC046080E0008040E0008F0B5D64687
:100D40004F4646469846244BC0B5060018689A465A
:100D50000F009146FFF7C6FF204B1D68002D32D0D3
:100D600053466C6818681F2C30DC002E0CD1631CB5
:100D70000234A4006B606751FFF7B6FF0020E0BCAF
:100D8000BA46B146A846F0BD49468822A300EB18F2
:100D90009950C42149008C46AC446146873AA24030
:100DA0000968914611436246116084214246490018
:100DB0005A50022EDBD129004A468D31FF310B6893
:100DC00013430B60D3E7064D1D60C9E7FFF78CFFA7
:100DD00001204042D3E7C0460C0400205C0C0020F8
:100DE000600C0020F8B5C046F8BC08BC9E467047B1
:0C0DF000F8B5C046F8BC08BC9E46704731
:080DFC00ED0C000835010008B0
:040E040009010008D8
:100E08000101010101070700515742575948534151
:100E18005A4948524D444F4943454F47415A4C4B14
:100E28005446525055584E58564A54434B4C5042CB
:100E380044554E4553464A595147494C44575157D2
:100E480047434B4B544646465157425759485341DE
:100E58005A4948524D444F4943454F47415A4C4BD4
:100E68005446525055584E58564A54434B4C50428B
:100E780044554E4553464A595147494C4457515792
:100E880047434B4B5446464651574257594853419E
:100E98005A4948524D444F4943454F47415A4C4B94
:100EA8005446525055584E58564A54434B4C50424B
:100EB80044554E4553464A595147494C4457515752
:100EC80047434B4B5446464651574257594853415E
:100ED8005A4948524D444F4943454F47415A4C4B54
:100EE8005446525055584E58564A54434B4C50420B
:100EF80044554E4553464A595147494C4457515712
:100F080047434B4B5446464651574257594853411D
:100F18005A4948524D444F4943454F47415A4C4B13
:100F28005446525055584E58564A54434B4C5042CA
:100F380044554E4553464A595147494C44575157D1
:100F480047434B4B544646465157425759485341DD
:100F58005A4948524D444F4943454F47415A4C4BD3
:100F68005446525055584E58564A54434B4C50428A
:100F780044554E4553464A595147494C4457515791
:100F880047434B4B5446464651574257594853419D
:100F98005A4948524D444F4943454F47415A4C4B93
:100FA8005446525055584E58564A54434B4C50424A
:100FB80044554E4553464A595147494C4457515751
:100FC80047434B4B5446464651574257594853415D
:100FD8005A4948524D444F4943454F47415A4C4B53
:100FE8005446525055584E58564A54434B4C50420A
:100FF80044554E4553464A595147494C4457515711
:1010080047434B4B5446464651574257594853411C
:101018005A4948524D444F4943454F47415A4C4B12
:101028005446525055584E58564A54434B4C5042C9
:1010380044554E4553464A595147494C44575157D0
:1010480047434B4B544646465157425759485341DC
:101058005A4948524D444F4943454F47415A4C4BD2
:101068005446525055584E58564A54434B4C504289
:1010780044554E4553464A595147494C4457515790
:1010880047434B4B5446464651574257594853419C
:101098005A4948524D444F4943454F47415A4C4B92
:1010A8005446525055584E58564A54434B4C504249
:1010B80044554E4553464A595147494C4457515750
:1010C80047434B4B5446464651574257594853415C
:1010D8005A4948524D444F4943454F47415A4C4B52
:1010E8005446525055584E58564A54434B4C504209
:1010F80044554E4553464A595147494C4457515710
:1011080047434B4B5446464651574257594853411B
:101118005A4948524D444F4943454F47415A4C4B11
:101128005446525055584E58564A54434B4C5042C8
:1011380044554E4553464A595147494C44575157CF
:1011480047434B4B544646465157425759485341DB
:101158005A4948524D444F4943454F47415A4C4BD1
:101168005446525055584E58564A54434B4C504288
:1011780044554E4553464A595147494C445751578F
:1011880047434B4B5446464651574257594853419B
:101198005A4948524D444F4943454F47415A4C4B91
:1011A8005446525055584E58564A54434B4C504248
:1011B80044554E4553464A595147494C445751574F
:1011C80047434B4B5446464651574257594853415B
:1011D8005A4948524D444F4943454F47415A4C4B51
:1011E8005446525055584E58564A54434B4C504208
:1011F80044554E4553464A595147494C445751570F
:1012080047434B4B5446464600000000580C00200C
:0400000508000845A2
:00000001FF
