:020000040800F2
:10000000002000204D030008990300089903000810
:1000100000000000000000000000000000000000E0
:10002000000000000000000000000000990300082C
:100030000000000000000000990300089903000878
:100040009903000899030008990300089903000820
:1000500099030008F90300089903000899030008B0
:100060009903000899030008DD04000899030008BB
:10007000990300089903000899030008490400083F
:10008000A904000899030008000000009903000873
:1000900099030008990300089903000899030008D0
:1000A00099030008990300089903000899030008C0
:1000B00099030008000000009903000800000000F8
:1000C0000448054B10B5834203D0044B002B00D0ED
:1000D000984710BD0400002004000020000000002C
:1000E00006480749091A8B10C90FC91810B54910DD
:1000F00003D0044B002B00D0984710BD0400002013
:10010000040000200000000010B5074C2378002BED
:1001100009D1FFF7D5FF054B002B02D0044800E0C2
:1001200000BF0123237010BD040000200000000068
:1001300078060008054B10B5002B03D0044905488C
:1001400000E000BFFFF7CCFF10BDC046000000007C
:1001500008000020780600080D4AD36901210B43EE
:10016000D3618023DB050B4A9A62DA62DA680A43BC
:10017000DA601A680A431A60074AC3218900535893
:100180001B021B0A535080231B0213607047C0469A
:10019000001002408303000000E100E00D4AD36933
:1001A00002210B43D3610C4B0C4A9A620C4ADA626F
:1001B000DA6801390A43DA601A680A431A60094B9F
:1001C000C42189005A58FF2082435A50802252028B
:1001D0001A60704700100240000400403F06000013
:1001E0008713000000E100E00A4B1A6801210A436E
:1001F0001A609A680A439A60DA680A43DA60064B22
:10020000C12189005A58054802405A5020221A60DC
:100210007047C0460004014000E100E0FF00FFFF1E
:1002200010B5064A936901210B439361FFF7DCFF88
:10023000FFF792FFFFF7B2FF10BDC046001002406B
:100240000B4B1A6880210A431A601A6870390A43F6
:100250001A601A6810310A431A608022D2005A606C
:10026000044A9A60D8601A681E390A431A607047B7
:100270001C000240283801400B4B1A6880210A43B9
:100280001A601A6870398A431A601A6810310A4372
:100290001A608022D2005A60044A9A60D8601A68B4
:1002A0001E390A431A60704730000240243801406A
:1002B0000B4BC220800019580A4A11408022D203F9
:1002C0000A431A508022D2001A60074A136801219B
:1002D0000B431360054A13680B4313607047C04615
:1002E00000E100E0FFFF00FF1C0002403000024080
:1002F00010B50C00064A536901210B435361FFF707
:100300009FFF2000FFF7B8FFFFF7D2FF10BDC046E8
:10031000001002400B4B5969802292020A435A6135
:100320005969802212030A435A61074B19688022D7
:1003300052020A431A6019688022D2020A431A60E4
:100340007047C04600100240000800480C4885462F
:100350000C480D490D4A002302E0D458C450043320
:10036000C4188C42F9D30A4A0A4C002301E01360F6
:100370000432A242FBD300F0DBF800F0D5F8FEE730
:100380000020002000000020040000209C0600083F
:1003900004000020CC090020FEE79023DB0519684B
:1003A000A02292030A431A60596A882252000A4323
:1003B0005A627047074B1A680C210A431A60064AB2
:1003C000DA609A68B4310A439A601A68BF390A43FE
:1003D0001A607047003801404103000010B5054A1B
:1003E00091698023DB010B439361FFF7D6FFFFF791
:1003F000E1FF10BD001002400F4B5B69DB071AD50F
:100400000D4A536901210B4353610C4B1B78022B9E
:1004100011D10A4B01221A708021C9050B681343C0
:100420000B6007490B6813430B60064A5169802330
:100430005B000B4353617047000401402000002023
:1004400000040040000800488023DB051B69DB072F
:1004500022D58022D205136901214B4013610F4B35
:100460001B78002B12D00D4B1B78012B14D10B4B9A
:1004700002221A708022D205136801218B43136077
:10048000074A536907490B40536105E013688B43E2
:100490001360024B02221A707047C04620000020F1
:1004A00000080048FFFEFFFF0A4B1B69DB0708D569
:1004B000084A136901214B401361074B1B78002B3D
:1004C00000D0704713688B431360034B02221A70ED
:1004D000F7E7C0460004004020000020094B1B68DD
:1004E0009B0604D5074A536820210B435360054BF4
:1004F0001B689B0505D5034A516880239B000B436D
:10050000536070470000024010B5FFF703FFFFF78C
:1005100065FF03490348FFF7EBFEFFF781FE10BDBF
:10052000240000202C04002010B5FFF7EDFFFEE7AB
:1005300070B50D4B0D4D5E1BB610AB4205D00024BF
:1005400008CD01349847A642FAD800F095F8084B38
:10055000084D5E1BB610AB4205D0002408CD013417
:100560009847A642FAD870BD900600089006000889
:1005700098060008900600087047C0467047C046BD
:10058000034B10B5002B02D0024800F005F810BD57
:1005900000000000A905000810B50100002300229A
:1005A000002000F015F810BD70B5074C074D641B16
:1005B000A41005D0013CA300EB589847002CF9D1BA
:1005C00000F060F870BDC0469C0600089806000860
:1005D000F0B5D6464F4646469846244BC0B5060071
:1005E00018689A460F009146FFF7C6FF204B1D681A
:1005F000002D32D053466C6818681F2C30DC002E5A
:100600000CD1631C0234A4006B606751FFF7B6FF86
:100610000020E0BCBA46B146A846F0BD4946882253
:10062000A300EB189950C42149008C46AC446146A4
:10063000873AA240096891461143624611608421BD
:10064000424649005A50022EDBD129004A468D31DC
:10065000FF310B6813430B60D3E7064D1D60C9E7FC
:10066000FFF78CFF01204042D3E7C0460000002086
:10067000380800203C080020F8B5C046F8BC08BC8B
:100680009E467047F8B5C046F8BC08BC9E46704709
:08069000810500083501000896
:04069800090100084C
:04069C0034080020FE
:040000050800034D9F
:00000001FF
