:020000040800F2
:1000000000200020F10300083D0400083D04000822
:1000100000000000000000000000000000000000E0
:100020000000000000000000000000003D04000887
:1000300000000000000000003D0400083D0400082E
:100040003D0400083D0400083D0400083D0400088C
:100050003D040008F90400083D0400083D040008C0
:100060003D0400083D0400083D0400083D0400086C
:100070003D0400083D0400083D0400083D0500085B
:100080003D0400083D040008000000003D04000895
:100090003D0400083D0400083D0400083D0400083C
:1000A0003D0400083D0400083D04000871050008F7
:1000B0003D040008000000003D04000800000000AE
:1000C0000448054B10B5834203D0044B002B00D0ED
:1000D000984710BD0804002008040020000000001C
:1000E00006480749091A8B10C90FC91810B54910DD
:1000F00003D0044B002B00D0984710BD080400200B
:10010000080400200000000010B5074C2378002BE5
:1001100009D1FFF7D5FF054B002B02D0044800E0C2
:1001200000BF0123237010BD080400200000000060
:1001300070080008054B10B5002B03D00449054892
:1001400000E000BFFFF7CCFF10BDC046000000007C
:100150000C04002070080008114BC35C002B09D070
:10016000104BC35A01339BB28022D200934213D06A
:100170000C4A83528022D200835A01339BB29342AD
:100180000CD08022D2008352064A825AD31A5A4295
:100190005341034A835470470023E9E70023F0E703
:1001A0000404000002040000084BC35C002B08D1CB
:1001B0008023DB00C25A064BC35A9A4204D0002067
:1001C00000E00020C0B270470120FBE704040000FB
:1001D0000204000000238022D2008352024A83528C
:1001E0000022024BC25470470204000004040000C5
:1001F00010B58023DB00C35AC154FFF7ADFF10BD1B
:1002000070B504000D00FFF7CFFF002813D10B4B92
:10021000E25AA25C2A70E35A01339BB28022D200D8
:10022000934206D0054AA352054B0022E254012016
:1002300070BD0023F6E701204042F9E70204000008
:1002400004040000064A516980231B030B435361D9
:10025000044A116880235B020B4313607047C04659
:1002600000100240000800488023DB05DA68012105
:100270000A43DA600549802212020A60C320800026
:100280000A581202120A13430B50704700E100E0B3
:10029000054AD36901210B43D3618023DB05034A5F
:1002A0009A62DA627047C046001002408303000081
:1002B0000C4A936901210B4393610B4B1A680A4363
:1002C0001A609A680A439A60084B20221A60C1207B
:1002D00080001958064A11408022D2010A431A5060
:1002E0007047C046001002400004014000E100E0F9
:1002F000FF00FFFF10B5FFF7A5FFFFF7D9FFFFF7DE
:10030000C7FFFFF7B1FF10BD064BDB68DB07FBD46F
:10031000044B1B691B0604D5024B034A5A60034A6F
:100320005A6070470020024023016745AB89EFCD3A
:10033000024A136980210B43136170470020024079
:1003400010B5FFF7E1FF10BD10B5124A1369012483
:1003500023431361104B9C466144490008800D4BB8
:10036000DB68DB07FBD40B4BDB689B060AD4094A2E
:10037000D36820210B43D360064A136901218B43C4
:10038000136110BD054A516980239B000B435361E3
:10039000F2E7C04600200240007E0004000800484A
:1003A00010B5FFF7B1FF034A136810210B43136028
:1003B00010BDC04600200240054B9C4661444900E8
:1003C0000B880380034BDB68DB07FBD47047C04618
:1003D000007E00040020024010B5FFF7A9FF034A89
:1003E000136810218B43136010BDC04600200240EB
:1003F0000C4885460C480D490D4A002302E0D458AC
:10040000C4500433C4188C42F9D30A4A0A4C00235E
:1004100001E013600432A242FBD300F085F900F042
:100420005FF9FEE700200020000000200804002003
:100430009408000808040020CC0D0020FEE700000E
:10044000034A91698023DB010B4393617047C046E7
:1004500000100240094A516980239B020B435361FB
:100460009023DB051968A02292030A431A60596A97
:10047000882252000A435A627047C0460010024068
:100480000C4B1A680C490A401A6019688022120243
:100490000A431A60094ADA605A6809490A405A60F0
:1004A0001A6801210A431A601A680B310A431A605C
:1004B0007047C04600380140FFEFFFEF82060000A2
:1004C000FFCFFFFF064B1A6820210A431A601A6803
:1004D00060310A431A601A6840390A431A6070474B
:1004E0000038014010B5FFF7ABFFFFF7B3FFFFF790
:1004F000C7FFFFF7E7FF10BD0D4B5B69DB0715D5A5
:100500000B4A536901210B4353610A4B1B78002BA3
:100510000CD1084B19708022D20513680B4313606D
:10052000054A516980235B004B4053617047C046C8
:1005300000040140320C0020000800488023DB0545
:100540001B69DB0711D58022D205136901214B40BD
:100550001361064B1B78012B07D1044B02221A7042
:100560008022D20513688B4313607047320C002041
:1005700010B5164B1B78032B07D1154BDB699B0677
:1005800004D4134BDB691B0607D410BD104B998CA8
:10059000C9B21048FFF72CFEF3E70F480F49FFF7E9
:1005A0002FFE013004D00A4BDB695B06FBD5ECE77C
:1005B000064B04221A700A4A802380210905D15073
:1005C000BFF34F8FBFF36F8FEDE7C046320C0020B3
:1005D00000380140240400202C0800202838014065
:1005E00000E100E010B582B0FFF7DAFE00240DE074
:1005F00000236A46D380E1B2901DFFF7DDFE6B4613
:10060000DB881B0A054A13550134A4B280239B00E2
:100610009C42EDD3FFF7E0FE02B010BD00000020C9
:1006200010B5FFF78DFE002109E04C1C074B185D4B
:100630005B5C1B02C9B21843FFF786FEA1B28023A0
:100640009B009942F1D3FFF7C7FE10BD00000020C8
:1006500010B51048FFF7BEFD0F48FFF7BBFD0024A3
:1006600006E00E4B195D0B48FFF7C2FD0134A4B242
:100670008023DB009C42F4D3094A80231B051360CE
:10068000C620800013581B021B0A8021C9050B439A
:10069000135010BD2C08002024040020000000206E
:1006A00000E100E010B50B4A136801210B43136011
:1006B000084B1B689B07FBD5074B00221A70FFF7FE
:1006C00011FFFFF717FE054A11688023DB020B4379
:1006D000136010BD00100240320C002000080048DA
:1006E00010B5FFF7DFFFFFF79BFFFFF77BFF04E08D
:1006F0000B4B03221A70FFF7ABFF094B1B78022B41
:10070000F6D0074B1B78042BF7D1054B00221A704B
:10071000044A516980235B004B405361EDE7C046BA
:10072000320C00200008004870B50D4B0D4D5E1BCB
:10073000B610AB4205D0002408CD01349847A6423C
:10074000FAD800F095F8084B084D5E1BB610AB4286
:1007500005D0002408CD01349847A642FAD870BDD0
:100760008808000888080008900800088808000821
:100770007047C0467047C046034B10B5002B02D0EF
:10078000024800F005F810BD00000000A1070008B5
:1007900010B5010000230022002000F015F810BD64
:1007A00070B5074C074D641BA41005D0013CA30095
:1007B000EB589847002CF9D100F060F870BDC046A6
:1007C0009408000890080008F0B5D6464F46464603
:1007D0009846244BC0B5060018689A460F0091460B
:1007E000FFF7C6FF204B1D68002D32D053466C68C2
:1007F00018681F2C30DC002E0CD1631C0234A400BE
:100800006B606751FFF7B6FF0020E0BCBA46B14607
:10081000A846F0BD49468822A300EB189950C42190
:1008200049008C46AC446146873AA240096891462B
:100830001143624611608421424649005A50022EFB
:10084000DBD129004A468D31FF310B6813430B6021
:10085000D3E7064D1D60C9E7FFF78CFF012040423A
:10086000D3E7C04604040020380C00203C0C0020D4
:10087000F8B5C046F8BC08BC9E467047F8B5C046FF
:08088000F8BC08BC9E4670475D
:080888007907000835010008A2
:040890000901000852
:1008940051574257594853415A4948524D444F4978
:1008A40043454F47415A4C4B5446525055584E5865
:1008B400564A54434B4C504244554E4553464A596C
:1008C4005147494C4457515747434B4B544646466E
:1008D40051574257594853415A4948524D444F4938
:1008E40043454F47415A4C4B5446525055584E5825
:1008F400564A54434B4C504244554E4553464A592C
:100904005147494C4457515747434B4B544646462D
:1009140051574257594853415A4948524D444F49F7
:1009240043454F47415A4C4B5446525055584E58E4
:10093400564A54434B4C504244554E4553464A59EB
:100944005147494C4457515747434B4B54464646ED
:1009540051574257594853415A4948524D444F49B7
:1009640043454F47415A4C4B5446525055584E58A4
:10097400564A54434B4C504244554E4553464A59AB
:100984005147494C4457515747434B4B54464646AD
:1009940051574257594853415A4948524D444F4977
:1009A40043454F47415A4C4B5446525055584E5864
:1009B400564A54434B4C504244554E4553464A596B
:1009C4005147494C4457515747434B4B544646466D
:1009D40051574257594853415A4948524D444F4937
:1009E40043454F47415A4C4B5446525055584E5824
:1009F400564A54434B4C504244554E4553464A592B
:100A04005147494C4457515747434B4B544646462C
:100A140051574257594853415A4948524D444F49F6
:100A240043454F47415A4C4B5446525055584E58E3
:100A3400564A54434B4C504244554E4553464A59EA
:100A44005147494C4457515747434B4B54464646EC
:100A540051574257594853415A4948524D444F49B6
:100A640043454F47415A4C4B5446525055584E58A3
:100A7400564A54434B4C504244554E4553464A59AA
:100A84005147494C4457515747434B4B54464646AC
:100A940051574257594853415A4948524D444F4976
:100AA40043454F47415A4C4B5446525055584E5863
:100AB400564A54434B4C504244554E4553464A596A
:100AC4005147494C4457515747434B4B544646466C
:100AD40051574257594853415A4948524D444F4936
:100AE40043454F47415A4C4B5446525055584E5823
:100AF400564A54434B4C504244554E4553464A592A
:100B04005147494C4457515747434B4B544646462B
:100B140051574257594853415A4948524D444F49F5
:100B240043454F47415A4C4B5446525055584E58E2
:100B3400564A54434B4C504244554E4553464A59E9
:100B44005147494C4457515747434B4B54464646EB
:100B540051574257594853415A4948524D444F49B5
:100B640043454F47415A4C4B5446525055584E58A2
:100B7400564A54434B4C504244554E4553464A59A9
:100B84005147494C4457515747434B4B54464646AB
:100B940051574257594853415A4948524D444F4975
:100BA40043454F47415A4C4B5446525055584E5862
:100BB400564A54434B4C504244554E4553464A5969
:100BC4005147494C4457515747434B4B544646466B
:100BD40051574257594853415A4948524D444F4935
:100BE40043454F47415A4C4B5446525055584E5822
:100BF400564A54434B4C504244554E4553464A5929
:100C04005147494C4457515747434B4B544646462A
:100C140051574257594853415A4948524D444F49F4
:100C240043454F47415A4C4B5446525055584E58E1
:100C3400564A54434B4C504244554E4553464A59E8
:100C44005147494C4457515747434B4B54464646EA
:100C540051574257594853415A4948524D444F49B4
:100C640043454F47415A4C4B5446525055584E58A1
:100C7400564A54434B4C504244554E4553464A59A8
:100C84005147494C4457515747434B4B54464646AA
:080C940000000000340C0020F8
:04000005080003F1FB
:00000001FF
