:020000040800F2
:10000000002000201D0B0008690B0008690B000888
:1000100000000000000000000000000000000000E0
:10002000000000000000000000000000690B000854
:100030000000000000000000690B0008690B0008C8
:10004000690B0008690B0008690B0008690B0008C0
:10005000690B0008FD030008390A0008E5090008DB
:10006000690B0008690B0008E5060008690B000829
:10007000690B0008690B0008690B00088904000877
:10008000FD040008690B000800000000610500087D
:10009000A9050008690A0008690B0008690B000837
:1000A000690B0008690B0008690B0008690B000860
:1000B000690B000800000000690B00080000000048
:1000C0000448054B10B5834203D0044B002B00D0ED
:1000D000984710BD0C0000200C000020000000001C
:1000E00006480749091A8B10C90FC91810B54910DD
:1000F00003D0044B002B00D0984710BD0C0000200B
:100100000C0000200000000010B5074C2378002BE5
:1001100009D1FFF7D5FF054B002B02D0044800E0C2
:1001200000BF0123237010BD0C0000200000000060
:1001300054110008054B10B5002B03D004490548A5
:1001400000E000BFFFF7CCFF10BDC046000000007C
:100150001000002054110008124BC35C002B09D082
:10016000114BC35A01339BB28022D200934215D067
:100170000D4A83528022D200835A01339BB29342AC
:100180000ED08022D2008352835A074A825A9B1A89
:100190005A425341DBB2034A835470470023E7E7D6
:1001A0000023EEE70404000002040000094BC35CD6
:1001B000002B0AD18023DB00C25A92B2064BC35AED
:1001C0009BB29A4204D0002000E00020C0B27047E9
:1001D0000120FBE704040000020400000023802249
:1001E000D2008352024A83520022024BC25470470B
:1001F000020400000404000010B58023DB00C35A91
:100200009BB2C154FFF7A8FF10BD000070B50400F9
:100210000D00FFF7CBFF002813D10B4AA35A9BB266
:10022000E35C2B70A35A01339BB2023A934206D08F
:10023000054AA352054B0022E254012070BD002361
:10024000F6E701204042F9E7020400000404000040
:100250000E49CB6901221343CB610D4B0D490B6055
:100260000D490B600D490B6813430B600C390B688B
:1002700013430B600A4AC321890053581B021B0A0F
:10028000535080231B0213607047C0460010024089
:1002900083030000280000402C0000400C000040B8
:1002A00000E100E00F4AD36902210B43D3610E4BFA
:1002B0000E4A1A600E4B0F4A1A600F4A1368013932
:1002C0000B4313600D4A13680B4313600C4BC4219E
:1002D00089005A58FF2082435A50802252021A60E5
:1002E0007047C04600100240280400403F0600004E
:1002F0002C040040871300000C0400400004004060
:1003000000E100E00F4AD16980235B000B43D36119
:100310000D4B0E4A1A600E4B0E4A1A600E4A1368B5
:1003200001210B4313600D4A13680B4313600C4A01
:10033000C421890053581B021B0A535080231B03FE
:100340001360704700100240282000401F03000087
:100350002C200040871300000C20004000200040AB
:1003600000E100E00F4A916980235B020B43936137
:100370000D4B0E4A1A600E4B0E4A1A600E4A136855
:1003800001210B4313600D4A13680B4313600C4BA0
:10039000C52189005A58FF2082435A5080225203B7
:1003A0001A60704700100240284001403F1F0000C3
:1003B0002C400140871300000C40014000400140E8
:1003C00000E100E00A4B1A6801210A431A609A68AA
:1003D0000A439A60DA680A43DA60064B20221A6000
:1003E000C12189005A58044802405A507047C046FB
:1003F0000004014000E100E0FF00FFFF1E4B5B69CD
:10040000DB0738D51C4A536901210B4353611B4B51
:100410009B78002B2FD19023DB051B69DB0709D5C7
:10042000164B00225A701B78002B03D0134AD37846
:100430000133D3709023DB051B69DB070DD40F4B11
:1004400001225A701B78002B07D10D4A1368012135
:100450008B431360094B0022DA70084B012199701D
:10046000084A506980235B00034353618022D20510
:1004700013680B4313607047000401402C000020F8
:100480000004004000080048164B1B68DB0727D516
:10049000144A136801214B401360134B1B78002B47
:1004A00017D1124B00229A7011494A691148024033
:1004B0004A618021C9050A680330FF3082430A601F
:1004C0005B78002B0CD10C4A136801210B4313609D
:1004D00006E0103A13688B431360034B00221A7036
:1004E0007047C04610000040000000202C00002093
:1004F00000080048FFFEFFFF00040040124B1B688D
:10050000DB0717D5104A136801214B4013600F4BCE
:100510005B78002B0FD10E4A012313700D490A6836
:100520009A430A600C490A681A430A600B490A6830
:1005300013430B607047074A13688B431360034BE8
:1005400000225A70F6E7C046100400400000002068
:100550002C0000200004004000200040004001402A
:100560000D4B1B68DB070ED50B4A136801214B406E
:1005700013600A4B9B78002B06D1094A51698023EE
:100580009B004B4053617047064A13688B431360CE
:10059000024B00229A70F6E7102000400000002075
:1005A0000008004800200040204B1B68DB0728D5CE
:1005B0001E4A136801214B4013601D4BDB78002B52
:1005C00007D11C4BDB78042B2CD89B001A4AD3583C
:1005D0009F461A4A13688B431360154B0022DA704A
:1005E0000FE0174B00221A70124B0022DA701A70BB
:1005F000124A136801218B431360124A13688B431C
:10060000136070470E4B01221A70EDE70C4B02226B
:100610001A70E9E70A4B04221A70E5E7084B052235
:100620001A70E1E7064B00221A70DDE71040014026
:10063000000000202C0000206C1100080040014048
:10064000280000200020004010B5FFF7BBFEFFF798
:10065000FFFDFFF727FEFFF755FEFFF783FE10BDF6
:10066000094B1A6880210A431A601A6870390A43D4
:100670001A608022D2005A60044A9A60D8601A68D0
:100680000E390A431A6070471C00024028380140A6
:10069000094B1A6880210A431A601A6870398A4324
:1006A0001A608022D2005A60044A9A60D8601A68A0
:1006B0000E390A431A607047300002402438014066
:1006C000064BC22080001958054A11408022D203EF
:1006D0000A431A508022D2001A60704700E100E0FD
:1006E000FFFF00FF144B1B689B060FD5124A53688F
:1006F00020210B43536011490B68012293430B6087
:100700000F4B8021C90059600E4B1A700A4B1B68B1
:100710009B050FD5084A516880239B000B4353600B
:10072000074B1A6801218A431A608022D2005A605E
:10073000054B19707047C046000002401C00024083
:1007400030000240300000203100002010B50C00C5
:10075000064A536901210B435361FFF781FF2000D3
:10076000FFF796FFFFF7ACFF10BDC0460010024038
:100770009023DB051968A02292030A431A60596A84
:10078000882252000A435A6270470000074B1A68D9
:100790000C210A431A60064ADA609A68B4310A43A7
:1007A0009A601A68BF390A431A60704700380140DE
:1007B0004103000010B5054A91698023DB010B431A
:1007C0009361FFF7D5FFFFF7E1FF10BD0010024076
:1007D00070B504000D00FFF7EDFF29002000FFF7C2
:1007E000B5FF70BD064BDB68DB07FBD4044B1B6910
:1007F0001B0604D5024B034A5A60034A5A607047ED
:100800000020024023016745AB89EFCD024A1369FE
:1008100080210B43136170470020024010B5FFF7A1
:10082000E1FF124BDB68DB07FBD4104B1A69022196
:100830000A431A610E4A5A611A693E310A431A6123
:100840000A4BDB68DB07FBD4084BDB689B0604D54F
:10085000064AD36820210B43D360044A136902215E
:100860008B431361FFF7D2FF10BDC046002002404A
:1008700000FC00080002084370470000F8B50600BD
:100880000F00FFF7CBFFFFF7ADFF194A13690121F6
:100890000B43136100240FE063005A1C15496518CF
:1008A0006D00B15CF05CFFF7E5FF2880104BDB6862
:1008B000DB07FBD40134A4B27B08A342ECD80C4B79
:1008C000DB689B060CD40A4AD36820210B43D36013
:1008D000074A136901218B431361FFF797FFF8BDA6
:1008E000054A516980239B000B435361F0E7C046E2
:1008F00000200240007E00040008004870B504009B
:100900000D00FFF76FFF104A136810210B431360AF
:1009100000220EE00D4BD3185B0019885300080A23
:10092000E0540133E154084BDB68DB07FBD40132B0
:1009300092B26B089342EDD8FFF768FF024A136842
:1009400010218B43136070BD00200240007E000424
:10095000084A936901210B439361074B9A689A6097
:100960009A689A609A689A601969802292010A438B
:100970001A61704700100240000001400B4B59699A
:10098000802292020A435A6159698022D2020A43A4
:100990005A61074A1168074B0B4313609022D20536
:1009A000116880235B000B43136070470010024006
:1009B0000004004854550100084A516980231B0374
:1009C0000B435361064B1968802252020A431A6096
:1009D00019688022D2020A431A6070470010024050
:1009E00000080048104B5B78002B0BD00F4B5B6965
:1009F000DB0607D50D4A536910210B4353610C4B9D
:100A000001221A70084B1B78002B0BD0074B5B6937
:100A10009B0607D5054A536920210B435361054BBB
:100A200001221A707047C0463800002000040140BF
:100A30003500002034000020084BDB78002B0BD061
:100A4000074B5B691B0707D5054A536908210B4310
:100A50005361044B01221A707047C04638000020D1
:100A600000040140330000200F4B1B68DB0711D549
:100A70000D4A136801214B4013600C4B1B78002B6F
:100A800009D19022D205936908210B439361084B49
:100A900001221A707047074A13688B431360034B97
:100AA00000221A70F6E7C0461044014004000020FE
:100AB000320000200044014070B5FFF77DFFFFF7D2
:100AC0005DFFFFF745FF11480125C570104B1A68FF
:100AD00008210A431A60DA680A43DA600D4A38319D
:100AE0001160C121890054580B4E34405450057098
:100AF0001868202420431860D8682043D8608023D9
:100B0000136053581B021B0A535070BD380000205D
:100B10000004014000E100E0FFFF00FF0C488546B3
:100B20000C480D490D4A002302E0D458C450043348
:100B3000C4188C42F9D30A4A0A4C002301E013601E
:100B40000432A242FBD300F061FA00F0B9F9FEE7EB
:100B500000200020000000200C0000208C11000864
:100B60000C000020F0090020FEE7000010B5414B0A
:100B70001B78002B29D03F4B00221A703E4B1B786C
:100B8000072B23D03C4B1B7801229A403B49097824
:100B90000A423ED09020C00582690224224382612D
:100BA000354A581E1070002B08D1130007221A7006
:100BB000334B1B78032B44D1C82932D09022D20565
:100BC000916980231B030B43936110BD2C4B1B7851
:100BD000032B09D1294BC8321A709022D205936990
:100BE00004210B439361CDE7264A536926490B4004
:100BF00053612249254C2000FFF708FB244BE35C9E
:100C0000002BBFD09022D205936904210B4393613E
:100C1000B8E79020C0058469802292022243826155
:100C2000BEE79022D20591698023DB020B439361DA
:100C3000184A136801218B431360114B00221A706C
:100C4000BCE71248FFF7B2FA0028B7D09022D205CD
:100C500091698023DB020B4393610E4A13680121E3
:100C60008B431360074A516980235B000B43536138
:100C7000A4E7C04632000020060000204600002005
:100C80002800002000080048FFFEFFFF4800002069
:100C9000040400000044014000B583B0304B1B78D1
:100CA000002B5BD02F4B1B78032B1AD06B460022F6
:100CB000DA712C4B1B78032B1FD16B46C832DA71CB
:100CC000294BC73A1A70294B5A6929490A405A6177
:100CD0005A6969460731097849000A435A61002375
:100CE00024E0214B1B78012BE0D11E4A0023137016
:100CF0001D4A13701A4A137030E01E486B46D91D06
:100D0000FFF784FA013005D01B4A53691B490B4099
:100D10005361D8E7124B00221A70174A5169802399
:100D20005B000B43536119E00133DBB2072BFBD9A6
:100D30009022D205936910210B439361002301E0B7
:100D40000133DBB23F2BFBD99022D205916980237E
:100D50005B030B439361024B00221A7003B000BD8A
:100D60003400002028000020450000200004004836
:100D700001FEFFFF4800002000080048FFFEFFFFC3
:100D800010B51E4B1B78002B22D09023DB051A696F
:100D9000022313405A1E9341194802789340194C7C
:100DA00021781943C9B22170144B00241C70531EC2
:100DB0000370002A0CD107320270C82909D1124AE7
:100DC000516980239B004B4053610E4B00221A70E7
:100DD00010BD0E48FFF710FA0D4A13680133136077
:100DE0008022D2009342F0D1094B00221A60064AB9
:100DF000516980235B004B405361E6E733000020DC
:100E00000500002044000020000800485004002095
:100E10004000002010B51E4B1B78002B36D01D4B18
:100E200019694908C9B2C82910D11B4A51698023E0
:100E30009B004B405361164B00221A709022D20542
:100E4000936920210B439361002316E01348FFF7B9
:100E5000D3F9134A1368013313608022D2009342FE
:100E6000E9D10F4B00221A600B4A516980235B00C5
:100E70004B405361DFE70133DBB23F2BFBD99022BC
:100E8000D205916980239B030B43936110BDC0463B
:100E900035000020000400480008004850040020ED
:100EA0003C00002010B5FFF707FE03490348FFF799
:100EB0008FFCFFF7C9FB10BD500400204800002044
:100EC00010B54848FFF78AF9FFF7ECFF70E0464B92
:100ED0001B68DB0704D4444A136801210B431360E9
:100EE000424B1B78002B67D0404B00241C708021A4
:100EF0003C48C900FFF7C2FC3D4B1C705CE03D4B19
:100F00001B68DB0709D53C4B1B78002B58D03A4BAC
:100F100000221A70364B1A7052E080213748C900FF
:100F2000FFF7ECFC334A136801210B431360EAE737
:100F3000324C2000FFF752F98021C9002000FFF752
:100F4000DDFC002406E02D48015DC9B2FFF754F92D
:100F50000134A4B28023DB009C42F4D3284B1B78DD
:100F6000002B06D0274B01221A70214B00221A7049
:100F70002AE0254A136801210B431360F5E7204B53
:100F80001B78002B06D01F4B01221A70184B03222E
:100F90001A701DE01C4A136801210B431360F5E72A
:100FA000FFF7EEFE164B1B78002B18D0FFF774FEF0
:100FB0000F4B1B78042B8AD00D4B1B78052B9ED032
:100FC0000B4B1B78012BB3D0094B1B78022BD6D0CF
:100FD0000B4B5B78002BE3D0FFF71CFFE2E7FFF73A
:100FE000C5FDE5E75004002030000240310000203C
:100FF000280000201C000240300000204800002093
:1010000038000020340000200044014070B50D4B32
:101010000D4D5E1BB610AB4205D0002408CD013447
:101020009847A642FAD800F095F8084B084D5E1B89
:10103000B610AB4205D0002408CD01349847A64233
:10104000FAD870BD801100088011000888110008CE
:10105000801100087047C0467047C046034B10B56A
:10106000002B02D0024800F005F810BD000000007F
:101070008510000810B5010000230022002000F0B8
:1010800015F810BD70B5074C074D641BA41005D0B2
:10109000013CA300EB589847002CF9D100F060F810
:1010A00070BDC0468C11000888110008F0B5D64606
:1010B0004F4646469846244BC0B5060018689A46E7
:1010C0000F009146FFF7C6FF204B1D68002D32D060
:1010D00053466C6818681F2C30DC002E0CD1631C42
:1010E0000234A4006B606751FFF7B6FF0020E0BC3C
:1010F000BA46B146A846F0BD49468822A300EB187F
:101100009950C42149008C46AC446146873AA240BC
:1011100009689146114362461160842142464900A4
:101120005A50022EDBD129004A468D31FF310B681F
:1011300013430B60D3E7064D1D60C9E7FFF78CFF33
:1011400001204042D3E7C046080000205C08002090
:1011500060080020F8B5C046F8BC08BC9E46704741
:0C116000F8B5C046F8BC08BC9E467047BD
:10116C00E2050008040600080C0600081406000836
:04117C001C06000845
:081180005D10000835010008B4
:041188000901000851
:0C118C00010101010107070058080020C4
:0400000508000B1DC7
:00000001FF
